:100000000C943A000C9457000C9457000C94570031
:100010000C9457000C9457000C9457000C94570004
:100020000C9457000C9457000C9457000C945700F4
:100030000C9457000C9457000C9457000C945700E4
:100040000C9457000C9457000C9457000C945700D4
:100050000C9457000C9457000C9457000C945700C4
:100060000C9457000C9457000C9457000C945700B4
:100070000C94570011241FBECFEFD4E0DEBFCDBFDC
:1000800011E0A0E0B1E0E0EBFDE002C005900D92D0
:10009000A835B107D9F721E0A8E5B1E001C01D926C
:1000A000AF36B207E1F70E941A060C94D6060C94FC
:1000B0000000CF93DF93EC010E94050380E00E94D3
:1000C000D302882321F08A819B81019708C082E0B6
:1000D0000E94D302882329F08A819B8101969B8309
:1000E0008A83DF91CF910895AC014770552721E0B5
:1000F00030E001C0220F4A95EAF733E096958795E4
:100100003A95E1F78230910591F18330910509F438
:1001100059C0019709F080C062307105B1F058F400
:100120006130710509F078C084B12095822384B9CB
:1001300085B1282311C06330710581F064307105E9
:1001400009F06AC085B1822B0DC084B1922F9095C1
:10015000892384B985B1282B25B95CC085B1922F3C
:100160009095892385B984B1282B24B953C0623076
:100170007105B1F058F46130710509F04DC087B1D7
:100180002095822387B988B1282311C06330710577
:1001900081F06430710509F03FC088B1822B0DC039
:1001A00087B1922F9095892387B988B1282B28B9D8
:1001B00031C088B1922F9095892388B987B1282BB7
:1001C00027B928C062307105A1F050F46130710583
:1001D00019F58AB1209582238AB98BB1282310C0E2
:1001E0006330710579F064307105B1F48BB1822B05
:1001F0000DC08AB1922F909589238AB98BB1282B93
:100200002BB908C08BB1922F909589238BB98AB1F5
:10021000282B2AB981E0089580E00895AC01477049
:10022000552721E030E001C0220F4A95EAF733E07C
:10023000969587953A95E1F78230910549F083309C
:10024000910551F0019759F485B1282B25B90895EE
:1002500088B1282B28B908958BB1282B2BB9089584
:10026000AC014770552721E030E001C0220F4A95CC
:10027000EAF733E0969587953A95E1F78230910554
:1002800051F08330910561F0019771F485B12095AB
:10029000282325B9089588B12095282328B90895E1
:1002A0008BB1209528232BB90895AC0147705527B1
:1002B00021E030E001C0220F4A95EAF733E096953D
:1002C00087953A95E1F78230910549F083309105A1
:1002D00051F0019759F485B1282725B9089588B1BF
:1002E000282728B908958BB128272BB90895AC0188
:1002F0004770552721E030E001C0220F4A95EAF708
:1003000033E0969587953A95E1F78230910539F07B
:100310008330910531F0019741F483B103C086B178
:1003200001C089B1282381E009F480E008956111BA
:100330000C940E010C943001AC014770552721E05C
:1003400030E001C0220F4A95EAF733E09695879591
:100350003A95E1F78230910561F08330910581F0A3
:10036000019721F584B1822391E009F490E084B1F2
:100370000DC087B1822391E009F490E087B106C0F7
:100380008AB1822391E009F490E08AB1282381E0C8
:1003900009F480E0992329F081110BC083E090E0FB
:1003A0000895811109C081E090E0089580E090E017
:1003B000089584E090E0089582E090E00895AC0113
:1003C0004770552721E030E001C0220F4A95EAF737
:1003D00033E0969587953A95E1F78230910539F0AB
:1003E0008330910531F0019741F485B103C088B1A4
:1003F00001C08BB1282381E009F480E00895E1E693
:10040000F0E080E880831082A89584B7877F84BF5E
:10041000E0E6F0E080818861808310820895109288
:10042000800084E080938100109285001092840007
:10043000089580918400909185000895AC01809189
:100440008400909185009C01241B350B283E33408D
:10045000B0F708952091840030918500820F931F9A
:100460000C941E02853098F4673088F421E030E067
:1004700001C0220F6A95EAF7E82FF0E0E75AFE4F35
:10048000922F9095808189234111822B808308953A
:10049000853080F4673070F421E030E001C0220F35
:1004A0006A95EAF7E82FF0E0E75AFE4F80812823AB
:1004B00081E009F480E0089560915801E62FF0E0B2
:1004C000E75AFE4F80810E949E02809158018F5F03
:1004D000853018F4809358010895109258010895BA
:1004E000E9E5F1E0108211821282138214820895EC
:1004F0000E947C020C9470020F931F93CF93DF93A2
:10050000CFE3D1E064E070E0899199910E9474009A
:1005100081E0CD34D807B1F7C5E3D1E00FE311E0B6
:1005200064E070E0899199910E9474000C171D0796
:10053000B9F7DF91CF911F910F910895FF920F931B
:100540001F93CF93DF93082FF62EE0915E01F0E02A
:10055000EE0FFF1FEB5CFE4F808191810E940E0128
:10056000CFE3D1E017E08881998100FF03C00E94AA
:10057000300102C00E940E01069511502296111101
:10058000F2CFEF2DF0E0EE0FFF1FEB5CFE4F80810E
:1005900091810E943001F0925E01DF91CF911F9115
:1005A0000F91FF900895E82FF0E0EE0FFF1FE15A42
:1005B000FE4F8081882321F0918181E0892702C04C
:1005C00080E090E081700895E82FF0E0EE0FFF1FCB
:1005D000E15AFE4F8081811102C0818102C080E01A
:1005E00090E081700895E82FF0E0EE0FFF1FE15AD0
:1005F000FE4F80810895E82FF0E0EE0FFF1FE15AD3
:10060000FE4F908181E089270895AF92BF92CF92EB
:10061000DF92EF92FF920F931F93CF93DF93CFE57B
:10062000D1E08DE4E82E81E0F82E96E0A92EBB24DF
:10063000B39488818983F701019111917F01C801E9
:100640000E949C016C0164E070E0C8010E9474008B
:1006500062E070E0C8010E9474008A2D8A95F1F76B
:10066000C8010E9477018B258883B601C8010E94CA
:1006700074002296F1E0C936DF07D9F6DF91CF91F9
:100680001F910F91FF90EF90DF90CF90BF90AF90B0
:1006900008950895009789F0FC012381621B67FD8E
:1006A00009C0062E000C770B248130E081E0621730
:1006B00073070CF080E08170089580E00895CF9377
:1006C000DF93FC01892B79F18181481760F59281D4
:1006D000291748F59381A62FA91BA7FD24C00A2E30
:1006E000000CBB0BC481D0E0AC17BD07E4F4622F53
:1006F0000E945806480F858190E0BD010E94610666
:100700000696242F269526952695E80FF91FE20FC9
:10071000F11D808190E0477002C0959587954A95BC
:10072000E2F7817001C080E0DF91CF910895CF930F
:10073000DF93EC010E940F029E0140E050E062E175
:100740007AE780E090E00E94860630936C01209367
:100750006B01DF91CF9108958091690190916A01B9
:100760000E941E022091690130916A0180916B0103
:1007700090916C01820F931F90936A01809369019D
:100780000895692F0C94480241E0611101C040E0D6
:10079000692F0C9432020C94C4035F926F927F9283
:1007A0008F929F92AF92BF92CF92DF92EF92FF9281
:1007B0000F931F93CF93DF93562E872E942E5C01B9
:1007C000E62EF72EC62F660FDD0BC81BD10987FD5D
:1007D000D395072F770F110B091B110997FD13955F
:1007E000D7FF03C077247A9402C07724739417FF4D
:1007F00003C066246A9402C066246394D7FF03C0D2
:10080000D195C195D10917FF03C011950195110923
:10081000C017D107A4F06E01D594C794F92EA51482
:1008200011F1692D8A2D9F2D0E94C403C01AD10A8F
:10083000D7FE03C0CC0EDD1EF60CA70CF0CF68016E
:10084000D594C794E82EB81471F0692D8E2D9B2D88
:100850000E94C403CC1ADD0AD7FE03C0C00ED11E0D
:10086000E70CB60CF0CF692DC701DF91CF911F9136
:100870000F91FF90EF90DF90CF90BF90AF909F903F
:100880008F907F906F905F900C94C403FF920F93B2
:100890001F93CF93DF93D82FF92E162FC72F042F36
:1008A000792F0E94CD03402F6D2F7C2F8D2F9F2DF0
:1008B0000E94CD03402F612F7C2F812F9F2D0E94FE
:1008C000CD03402F612F7C2F8D2F9C2F0E94CD03B5
:1008D000DF91CF911F910F91FF9008950E947002B8
:1008E000E0E0F1E0118A14860895DF92EF92FF9222
:1008F0000F931F93CF93DF93D82E7B01162F0F2DCD
:100900008091020190910301D0E0019799F50F2D9C
:100910000D1BE0910801F09109018181C0E0D81719
:10092000B8F48091080190910901FC012281C2175D
:1009300068F42C2F4D2F6D2D0E945F03682F8E2D94
:100940008C0F902F0E94C403CF5FEBCFDF5FDFCF10
:10095000E0910801F09109018281C81740F460E03C
:100960008E2D8C0F902F0E94C403CF5FF1CF0150CA
:1009700030C0DF5F1E2D1D0FE0910801F0910901CD
:100980008181C0E0D817A8F48091080190910901F5
:10099000FC012281C21768F72C2F4D2F6D2D0E946C
:1009A0005F03682F812F9F2D9C0F0E94C403CF5F90
:1009B000EBCFE0910801F09109018281C81740F462
:1009C00060E0812F9F2D9C0F0E94C403CF5FF1CF69
:1009D0001F5F812F902FDF91CF911F910F91FF907B
:1009E000EF90DF9008950F931F93CF938C01C0E099
:1009F000F80181918F01882341F00E947504BC01A8
:100A0000CF5F853014F477FFF3CF8C2FCF911F91F8
:100A10000F9108950F931F93CF93DF9310920C01C2
:100A200040930D01109210010091080110910901ED
:100A30000115110509F449C09B01EC01F801818100
:100A4000609106017091070190E00E946106BC016F
:100A500080910A0190910B010E947206CB016AE01D
:100A600070E00E94610690930F0180930E01309315
:100A700005012093040140E250E0BE0181E191E0D4
:100A80000E94C70680910001909101010197E9F44D
:100A9000FE0101900020E9F73197BF016C1B7D0B2F
:100AA000F80181818F5F0E945806815020910201D8
:100AB000309103012130310511F095E001C097E03C
:100AC000981718F48EEF80931001DF91CF911F914A
:100AD0000F910895209102013091030121303105D9
:100AE00011F070E001C076E04FEF60E00E940A056F
:100AF000089590E0909307018093060108959093E4
:100B000001018093000108959093030180930201F5
:100B100008959093090180930801089580916D01D3
:100B200090916E01019690936E0180936D012091DA
:100B30000E0130910F018217930708F469C01092DB
:100B40006E0110926D01E0910C01F0E0E050FF4F5A
:100B5000818981110AC080910D01823008F458C04A
:100B6000815080930D0110920C0180910C0190E056
:100B7000FC01E050FF4F2189222309F449C0409134
:100B8000000150910101209110014115510521F002
:100B90004130510599F024C0211122C06091040117
:100BA000709105018F5E9E4F0E94F30490E00197C3
:100BB00090910C01890F80930C0112C06091040187
:100BC000709105014091020150910301413051059E
:100BD00011F4720F01C0621B8F5E9E4F0E94F304DE
:100BE000809110018F5F80931001082E000C990BEB
:100BF000E0910801F0910901218130E028173907BF
:100C00003CF41092100180910C018F5F80930C01D5
:100C10000C945C02CF93DF93C0E0D1E09B878A877E
:100C20000E94780284E190E09F838E83DF91CF91D0
:100C30000C946E04CF93DF9300D000D0CDB7DEB715
:100C40000E94FF010E94490388EE93E00E949703EF
:100C500088EE93E00E940A0641E064E076E084E0DA
:100C600090E00E94CD038091310190913201A091DA
:100C70003301B091340189839A83AB83BC8361E0F3
:100C800083E096E00E94C40309811B81CE01019696
:100C90000E94590060E0C8010E94C40361E089819C
:100CA0009B810E94C4030E948E050E94AC03ECCF7E
:100CB000002480FD060E660F11F08695D1F7802D79
:100CC00008950024552704C0080E591F880F991F46
:100CD000009729F076956795B8F37105B9F7802DDF
:100CE000952F0895AA1BBB1B51E107C0AA1FBB1F6C
:100CF000A617B70710F0A61BB70B881F991F5A95A8
:100D0000A9F780959095BC01CD010895052E97FB1C
:100D10001EF400940E949D0657FD07D00E94A50670
:100D200007FC03D04EF40C949D06509540953095E9
:100D300021953F4F4F4F5F4F089590958095709547
:100D400061957F4F8F4F9F4F0895A1E21A2EAA1BE6
:100D5000BB1BFD010DC0AA1FBB1FEE1FFF1FA2176B
:100D6000B307E407F50720F0A21BB30BE40BF50B68
:100D7000661F771F881F991F1A9469F760957095F1
:100D8000809590959B01AC01BD01CF010895FB01B9
:100D9000DC014150504048F001900D920020C9F70D
:100DA00001C01D9241505040E0F70895F894FFCFE4
:100DB000000000000000140000000000000000001F
:100DC0000000000000000000000000000000000023
:100DD0000000000000000000000000000000000013
:100DE000000300060016000F001400170015000E87
:100DF000000D000C000B000A000900080017001687
:080E00000015000F00140000B2
:00000001FF
