:100000000C943A000C9457000C9457000C94570031
:100010000C9457000C9457000C9457000C94570004
:100020000C9457000C9457000C9457000C945700F4
:100030000C9457000C9457000C9457000C945700E4
:100040000C9457000C9457000C9457000C945700D4
:100050000C9457000C9457000C9457000C945700C4
:100060000C9457000C9457000C9457000C945700B4
:100070000C94570011241FBECFEFD4E0DEBFCDBFDC
:1000800011E0A0E0B1E0E4E8F1E102C005900D92DA
:10009000AE37B107D9F721E0AEE7B1E001C01D925C
:1000A000A73AB207E1F70E9473070C94C0080C94BA
:1000B0000000CF93DF93EC010E94C70541E064E0AC
:1000C00076E084E090E00E942605CE010E94EA00DE
:1000D000DF91CF910C94E7060F931F93FC012081D1
:1000E00031813583248322813381378326838C01B8
:1000F0000D5E1F4F9C012F5E3F4FAC01475F5F4F6E
:10010000BC01685F7F4F0E9488001F910F91089586
:10011000AF92BF92CF92DF92EF92FF920F931F9315
:10012000CF93DF93EC017B015A0169010E94230404
:1001300080E00E941104882321F08A819B8101972D
:1001400008C082E00E941104882341F08A819B81CB
:1001500001968730910510F49B838A830E943C03AB
:10016000F701808181110BC00E940C03882319F0D4
:1001700081E0F7018083F7018081882301F1F80194
:1001800080819181F501E80FF91F20818881998193
:10019000821B910927FD939599838883F8018081BB
:1001A0009181019691838083F601208131818217AC
:1001B000930729F4F80111821082F7011082DF9170
:1001C000CF911F910F91FF90EF90DF90CF90BF9054
:1001D000AF900895FC0161E0808192810E941D052D
:1001E00008950F931F93CF93DF938C01643000F534
:1001F000C62FD0E0CC0FDD1FCC0FDD1FC80FD91FDD
:100200000E94880862E070E00E94E5079C0191E08E
:10021000232B09F490E09A838FEF88830E9488084B
:1002200063E070E00E94E5078F5F898381E08B8344
:1002300080E0E82FF0E0EE0FFF1FEE0FFF1FE00F52
:10024000F11F9381992319F090819F5F9083908192
:100250009730E4F01382F8014481558166817781FB
:1002600040835183628373834085518562857385A2
:100270004483558366837783448555856685778572
:100280004087518762877387178681508F5F8430DC
:1002900080F2DF91CF911F910F910895AC014770CB
:1002A000552721E030E001C0220F4A95EAF733E0FC
:1002B000969587953A95E1F78230910591F18330D3
:1002C000910509F459C0019709F080C062307105A9
:1002D000B1F058F46130710509F078C084B120950F
:1002E000822384B985B1282311C06330710581F060
:1002F0006430710509F06AC085B1822B0DC084B1EC
:10030000922F9095892384B985B1282B25B95CC09B
:1003100085B1922F9095892385B984B1282B24B972
:1003200053C062307105B1F058F46130710509F0C5
:100330004DC087B12095822387B988B1282311C089
:100340006330710581F06430710509F03FC088B1F8
:10035000822B0DC087B1922F9095892387B988B1E0
:10036000282B28B931C088B1922F9095892388B95C
:1003700087B1282B27B928C062307105A1F050F44D
:100380006130710519F58AB1209582238AB98BB144
:10039000282310C06330710579F064307105B1F421
:1003A0008BB1822B0DC08AB1922F909589238AB987
:1003B0008BB1282B2BB908C08BB1922F9095892334
:1003C0008BB98AB1282B2AB981E0089580E008957D
:1003D000AC014770552721E030E001C0220F4A955B
:1003E000EAF733E0969587953A95E1F782309105E3
:1003F00049F08330910551F0019759F485B1282BCC
:1004000025B9089588B1282B28B908958BB1282BD8
:100410002BB90895AC014770552721E030E001C0A9
:10042000220F4A95EAF733E0969587953A95E1F7DA
:100430008230910551F08330910561F0019771F49C
:1004400085B12095282325B9089588B120952823C2
:1004500028B908958BB1209528232BB90895AC01B4
:100460004770552721E030E001C0220F4A95EAF796
:1004700033E0969587953A95E1F78230910549F0FA
:100480008330910551F0019759F485B1282725B99A
:10049000089588B1282728B908958BB128272BB94A
:1004A0000895AC014770552721E030E001C0220FCC
:1004B0004A95EAF733E0969587953A95E1F78230C9
:1004C000910539F08330910531F0019741F483B102
:1004D00003C086B101C089B1282381E009F480E01E
:1004E000089561110C94E8010C940A02AC01477064
:1004F000552721E030E001C0220F4A95EAF733E0AA
:10050000969587953A95E1F78230910561F08330B1
:10051000910581F0019721F584B1822391E009F4DE
:1005200090E084B10DC087B1822391E009F490E09E
:1005300087B106C08AB1822391E009F490E08AB1C4
:10054000282381E009F480E0992329F081110BC070
:1005500083E090E00895811109C081E090E0089562
:1005600080E090E0089584E090E0089582E090E0DB
:100570000895AC014770552721E030E001C0220FFB
:100580004A95EAF733E0969587953A95E1F78230F8
:10059000910539F08330910531F0019741F485B12F
:1005A00003C088B101C08BB1282381E009F480E049
:1005B0000895E1E6F0E080E880831082A89584B792
:1005C000877F84BFE0E6F0E08081886180831082CD
:1005D00008951092800084E080938100109285003D
:1005E0001092840008958091840090918500089570
:1005F000AC0180918400909185009C01241B350BF7
:10060000283E3340B0F70895209184003091850052
:10061000820F931F0C94F80281110DC080917E010E
:10062000882329F090917F0181E0892702C080E032
:1006300090E08170089580E0089581110BC0809151
:100640007E01811103C080917F0102C080E090E0B3
:100650008170089580E00895811103C080917E012A
:10066000089580E00895811105C090917E0181E098
:100670008927089580E00895CF93DF93CEE7D1E0F6
:10068000888189838FE190E00E9451028883DF9105
:10069000CF91089561E070E08FE190E00C944E01FD
:1006A000853098F4673088F421E030E001C0220FF3
:1006B0006A95EAF7E82FF0E0EF57FE4F922F9095FA
:1006C000808189234111822B80830895853080F4B5
:1006D000673070F421E030E001C0220F6A95EAF73C
:1006E000E82FF0E0EF57FE4F8081282381E009F4E6
:1006F00080E0089560918001E62FF0E0EF57FE4F13
:1007000080810E94BC03809180018F5F853018F446
:10071000809380010895109280010895E1E8F1E04E
:100720001082118212821382148208950E949A0309
:100730000C948E030F931F93CF93DF93C5E6D1E004
:1007400064E070E0899199910E944E0181E0C33785
:10075000D807B1F7CBE5D1E005E611E064E070E041
:10076000899199910E944E010C171D07B9F7DF91ED
:10077000CF911F910F910895FF920F931F93CF93E5
:10078000DF93082FF62EE0918601F0E0EE0FFF1FB9
:10079000E55AFE4F808191810E94E801C5E6D1E0D3
:1007A00017E08881998100FF03C00E940A0202C0FD
:1007B0000E94E8010695115022961111F2CFEF2DFB
:1007C000F0E0EE0FFF1FE55AFE4F808191810E94FD
:1007D0000A02F0928601DF91CF911F910F91FF9055
:1007E0000895E82FF0E0EE0FFF1FE957FE4F8081DC
:1007F000882321F0918181E0892702C080E090E088
:1008000081700895E82FF0E0EE0FFF1FE957FE4FCB
:100810008081811102C0818102C080E090E08170FE
:100820000895E82FF0E0EE0FFF1FE957FE4F80819B
:100830000895E82FF0E0EE0FFF1FE957FE4F90817B
:1008400081E089270895AF92BF92CF92DF92EF9215
:10085000FF920F931F93CF93DF93C7E8D1E083E715
:10086000E82E81E0F82E96E0A92EBB24B39488816F
:100870008983F701019111917F01C8010E947602DD
:100880006C0164E070E0C8010E944E0162E070E01B
:10089000C8010E944E018A2D8A95F1F7C8010E9475
:1008A00051028B258883B601C8010E944E01229611
:1008B000F1E0C139DF07D9F6DF91CF911F910F9198
:1008C000FF90EF90DF90CF90BF90AF900895089584
:1008D000009789F0FC012381621B67FD09C0062E89
:1008E000000C770B248130E081E0621773070CF075
:1008F00080E08170089580E00895CF93DF93FC013C
:10090000892B79F18181481760F59281291748F583
:100910009381A62FA91BA7FD24C00A2E000CBB0B98
:10092000C481D0E0AC17BD07E4F4622F0E94B70782
:10093000480F858190E0BD010E94C0070696242FD4
:10094000269526952695E80FF91FE20FF11D808167
:1009500090E0477002C0959587954A95E2F78170BF
:1009600001C080E0DF91CF910895CF93DF93EC0138
:100970000E94E9029E0140E050E062E17AE780E0F7
:1009800090E00E94F9073093940120939301DF9146
:10099000CF91089580919101909192010E94F80267
:1009A0002091910130919201809193019091940155
:1009B000820F931F90939201809391010895182FB5
:1009C000092FF62E0E94E9020E94F302C12FD02FB8
:1009D0008E819F810E94F802E881F9818A819B8142
:1009E00009952E813F818C819D81820F931F9F836A
:1009F0008E830E94F302BC01E12FF02F4FEF5FEFD7
:100A000090E09F1529F326813781DB01A21BB30BF0
:100A10009D012F3FBFE73B0710F4EF01D9CF319580
:100A2000219531092417350710F4A901EF019F5FC3
:100A30003896E7CF692F0C94660341E0611101C03D
:100A400040E0692F0C9450030C941D055F926F9247
:100A50007F928F929F92AF92BF92CF92DF92EF924E
:100A6000FF920F931F93CF93DF93562E872E942ED2
:100A70005C01E62EF72EC62F660FDD0BC81BD109D1
:100A800087FDD395072F770F110B091B110997FDD0
:100A90001395D7FF03C077247A9402C07724739408
:100AA00017FF03C066246A9402C066246394D7FFCC
:100AB00003C0D195C195D10917FF03C011950195C8
:100AC0001109C017D107A4F06E01D594C794F92E6F
:100AD000A51411F1692D8A2D9F2D0E941D05C01AA4
:100AE000D10AD7FE03C0CC0EDD1EF60CA70CF0CF4A
:100AF0006801D594C794E82EB81471F0692D8E2D35
:100B00009B2D0E941D05CC1ADD0AD7FE03C0C00E26
:100B1000D11EE70CB60CF0CF692DC701DF91CF9144
:100B20001F910F91FF90EF90DF90CF90BF90AF900B
:100B30009F908F907F906F905F900C941D05FF9217
:100B40000F931F93CF93DF93D82FF92E162FC72F14
:100B5000042F792F0E942605402F6D2F7C2F8D2F7B
:100B60009F2D0E942605402F612F7C2F812F9F2DC6
:100B70000E942605402F612F7C2F8D2F9C2F0E94D5
:100B80002605DF91CF911F910F91FF9008950E944C
:100B90008E03E6E2F1E0118A14860895DF92EF9267
:100BA000FF920F931F93CF93DF93D82E7B01162FC5
:100BB0000F2D8091280190912901D0E0019799F59E
:100BC0000F2D0D1BE0912E01F0912F018181C0E0CE
:100BD000D817B8F480912E0190912F01FC01228149
:100BE000C21768F42C2F4D2F6D2D0E947D04682FA5
:100BF0008E2D8C0F902F0E941D05CF5FEBCFDF5FF6
:100C0000DFCFE0912E01F0912F018281C81740F4CF
:100C100060E08E2D8C0F902F0E941D05CF5FF1CFCD
:100C2000015030C0DF5F1E2D1D0FE0912E01F091AD
:100C30002F018181C0E0D817A8F480912E019091F6
:100C40002F01FC012281C21768F72C2F4D2F6D2D2B
:100C50000E947D04682F812F9F2D9C0F0E941D05EF
:100C6000CF5FEBCFE0912E01F0912F018281C81769
:100C700040F460E0812F9F2D9C0F0E941D05CF5FE7
:100C8000F1CF1F5F812F902FDF91CF911F910F9197
:100C9000FF90EF90DF9008950F931F93CF938C01F7
:100CA000C0E0F80181918F01882341F00E94CE05B8
:100CB000BC01CF5F853014F477FFF3CF8C2FCF9139
:100CC0001F910F9108950F931F93CF93DF9310926D
:100CD0003201409333011092360100912E011091A0
:100CE0002F010115110509F449C09B01EC01F80120
:100CF000818160912C0170912D0190E00E94C007CC
:100D0000BC0180913001909131010E94D107CB014B
:100D10006AE070E00E94C00790933501809334012F
:100D200030932B0120932A0140E250E0BE0187E37B
:100D300091E00E94980880912601909127010197E7
:100D4000E9F4FE0101900020E9F73197BF016C1B27
:100D50007D0BF80181818F5F0E94B7078150209140
:100D60002801309129012130310511F095E001C0B1
:100D700097E0981718F48EEF80933601DF91CF91AA
:100D80001F910F9108952091280130912901213060
:100D9000310511F070E001C076E04FEF60E00E9495
:100DA0006306089590E090932D0180932C0108959F
:100DB00090932701809326010895909329018093B1
:100DC0002801089590932F0180932E01089580911A
:100DD00095019091960101969093960180939501CB
:100DE00020913401309135018217930708F469C0CE
:100DF0001092960110929501E0913201F0E0EA5DC7
:100E0000FE4F818981110AC080913301823008F43C
:100E100058C0815080933301109232018091320189
:100E200090E0FC01EA5DFE4F2189222309F449C0CC
:100E3000409126015091270120913601411551051D
:100E400021F04130510599F024C0211122C0609158
:100E50002A0170912B01895C9E4F0E944C0690E004
:100E6000019790913201890F8093320112C06091F5
:100E70002A0170912B0140912801509129014130A4
:100E8000510511F4720F01C0621B895C9E4F0E94D4
:100E90004C06809136018F5F80933601082E000C3E
:100EA000990BE0912E01F0912F01218130E028175C
:100EB00039073CF410923601809132018F5F8093A4
:100EC00032010C947A03CF93DF93C6E2D1E09B8783
:100ED0008A870E94960384E190E09F838E83DF914E
:100EE000CF910C94C705CF93DF93CDB7DEB7609752
:100EF0000FB6F894DEBF0FBECDBF0E94D9020E948C
:100F0000670488EE93E00E94630741E064E076E0C6
:100F100084E090E00E942605CE01019620E1FC01CC
:100F200011922A95E9F72CE630E03A83298320E0F4
:100F300031E03C832B834CE25AE05E834D8349E5EC
:100F400050E05A8749873C872B872FE130E03E8766
:100F50002D8762E00E94DF0480E090E060960FB68B
:100F6000F894DEBF0FBECDBFDF91CF91089500246E
:100F700080FD060E660F11F08695D1F7802D08953D
:100F80000024552704C0080E591F880F991F009789
:100F900029F076956795B8F37105B9F7802D952FEF
:100FA0000895AA1BBB1B51E107C0AA1FBB1FA617B0
:100FB000B70710F0A61BB70B881F991F5A95A9F702
:100FC00080959095BC01CD01089597FB072E16F4EE
:100FD000009407D077FD09D00E94D10707FC05D007
:100FE0003EF4909581959F4F0895709561957F4F40
:100FF0000895052E97FB1EF400940E94100857FDDB
:1010000007D00E94180807FC03D04EF40C94100877
:1010100050954095309521953F4F4F4F5F4F089524
:1010200090958095709561957F4F8F4F9F4F089554
:10103000A1E21A2EAA1BBB1BFD010DC0AA1FBB1FDC
:10104000EE1FFF1FA217B307E407F50720F0A21B4E
:10105000B30BE40BF50B661F771F881F991F1A94BB
:1010600069F760957095809590959B01AC01BD01E5
:10107000CF0108958F929F92AF92BF92CF92DF924D
:10108000EF92FF92CF93DF93EC01688179818A819F
:101090009B81611571058105910521F464E279ED6B
:1010A0008BE597E02DE133EF41E050E00E94F90736
:1010B00049015A0127EA31E440E050E00E94A708C4
:1010C0006B017C012CEE34EF4FEF5FEFC501B401F3
:1010D0000E94A708DC01CB018C0D9D1DAE1DBF1D1C
:1010E000B7FF03C00197A109B04888839983AA83F9
:1010F000BB839F77DF91CF91FF90EF90DF90CF90F0
:10110000BF90AF909F908F9008950E943A080895E5
:1011100087E591E00E943A080895A0E0B0E080934E
:10112000570190935801A0935901B0935A01089523
:10113000FB01DC014150504048F001900D9200202D
:10114000C9F701C01D9241505040E0F70895EE27C5
:10115000FF27AA27BB2708C0A20FB31FE41FF51F54
:10116000220F331F441F551F9695879577956795D6
:1011700098F37040A9F7009799F7BD01CF01089542
:04118000F894FFCF11
:101184000300060000000000000101010000FFFF51
:10119400FF08000000000000000000000000000044
:1011A4000000000000000000000000001400000027
:1011B400000000000000000000000000000000002B
:1011C400000000000000000000000000000000001B
:1011D400000000000000000100000016000F0014D1
:1011E40000170015000E000D000C000B000A00098A
:0E11F4000008001700160015000F0014000080
:00000001FF
