:100000000C943A000C9457000C9457000C94570031
:100010000C9457000C9457000C9457000C94570004
:100020000C9457000C9457000C9457000C945700F4
:100030000C9457000C9457000C9457000C945700E4
:100040000C9457000C9457000C9457000C945700D4
:100050000C9457000C9457000C9457000C945700C4
:100060000C9457000C9457000C9457000C945700B4
:100070000C94570011241FBECFEFD4E0DEBFCDBFDC
:1000800013E0A0E0B1E0E4EAF3E102C005900D92D4
:10009000AC36B107D9F723E0ACE6B3E001C01D925E
:1000A000A539B207E1F70E9471080C94D0090C94AD
:1000B0000000FC0127A1222391F080A581110FC02F
:1000C0008EE591E00E94E0078AE00E94D00781E07F
:1000D00090E00E94D60781E693E00E94C1070C944D
:1000E000E507CF93DF93FC0127A1211115C0EC0197
:1000F0000E94C50641E064E076E084E090E00E9462
:100100002406CE010E943601CE0145960E94D601FA
:10011000DF91CF910C94E507DF91CF9108950F9374
:100120001F93CF93DF93FC0127A1211118C0EC018D
:100130008C010B5E1F4FAC014A5D5F4FBC016B5DD4
:100140007F4FC8010E943D01AE01495D5F4FBE0176
:10015000C801DF91CF911F910F910C94FA01DF91AB
:10016000CF911F910F9108950F931F93FC0127A129
:10017000211117C08081918195838483828193812D
:10018000978386838F010D5E1F4F9F012F5E3F4F28
:10019000AF01475F5F4FBF01685F7F4FCF010E9494
:1001A000D4001F910F910895AF92BF92CF92DF922A
:1001B000EF92FF920F931F93CF93DF93EC017B019C
:1001C0005A0169010E94210580E00E940F058823E1
:1001D00021F08A819B81019708C082E00E940F056F
:1001E000882341F08A819B8101968730910510F424
:1001F0009B838A830E943A04F701808181110BC09E
:100200000E940A04882319F081E0F7018083F70136
:100210008081882301F1F80180819181F501E80F47
:10022000F91F208188819981821B910927FD93956F
:1002300099838883F80180819181019691838083DD
:10024000F601208131818217930729F4F801118288
:100250001082F7011082DF91CF911F910F91FF90D3
:10026000EF90DF90CF90BF90AF900895FC0161E0D8
:10027000808192810E941B060895CF92DF92EF92B7
:10028000FF920F931F93CF93DF93EC018B016A01D1
:10029000DA018C9184300CF449C0FB0180818430F8
:1002A00008F042C0E82EF12CEE0CFF1CEE0CFF1CF7
:1002B000EC0EFD1E0E94980962E070E00E94F508B5
:1002C0009C0191E0232B09F490E0D70112969C93B6
:1002D000D801EC91F0E0EE0FFF1FEE0FFF1FEC0FC7
:1002E000FD1F8FEF8183EC90F12CEE0CFF1CEE0CC8
:1002F000FF1CEC0EFD1E0E94980962E070E00E9457
:10030000F5088F5FF7018083D801EC91F0E0EE0FE4
:10031000FF1FEE0FFF1FEC0FFD1F81E083838C9109
:100320008F5F8C93F601108280E004C08F5FDA014A
:100330008C93FACFE82FF0E0EE0FFF1FEE0FFF1FB8
:10034000EC0FFD1F9381992319F091819F5F918399
:1003500091819730FCF013824C815D816E817F81A9
:10036000488359836A837B83488559856A857B8561
:100370004C835D836E837F834C855D856E857F8531
:10038000488759876A877B871F86F801908191503B
:10039000908381508F5F843068F2DF91CF911F91FD
:1003A0000F91FF90EF90DF90CF9008950F931F93E0
:1003B000CF93DF93EC018C01005F1F4F8B8188236B
:1003C00081F0888199812A81222329F061E0680FD8
:1003D00041E0792F04C071E0790F41E0682F0E945D
:1003E00024062496C017D10749F7DF91CF911F91BA
:1003F0000F910895AF92BF92CF92DF92FF920F9329
:100400001F93CF93DF93DB016D917C911197FC01DA
:100410005C0180E1A80EB11CFF24F394808121814E
:100420003281082E000C990B8617970771F41296EB
:10043000CD90DC901397022F022E000C110B0C159F
:100440001D0519F4EA01F88219C0332341F0019621
:100450006817790799F4022E000C330B08C0861731
:10046000970761F4022E000C330B2F5F3F4F12965B
:100470008D919C9113972817390721F33496EA152B
:10048000FB0561F6DF91CF911F910F91FF90DF90F7
:10049000CF90BF90AF900895AC014770552721E0F1
:1004A00030E001C0220F4A95EAF733E09695879530
:1004B0003A95E1F78230910591F18330910509F485
:1004C00059C0019709F080C062307105B1F058F44D
:1004D0006130710509F078C084B12095822384B918
:1004E00085B1282311C06330710581F06430710536
:1004F00009F06AC085B1822B0DC084B1922F90950E
:10050000892384B985B1282B25B95CC085B1922F88
:100510009095892385B984B1282B24B953C06230C2
:100520007105B1F058F46130710509F04DC087B123
:100530002095822387B988B1282311C063307105C3
:1005400081F06430710509F03FC088B1822B0DC085
:1005500087B1922F9095892387B988B1282B28B924
:1005600031C088B1922F9095892388B987B1282B03
:1005700027B928C062307105A1F050F461307105CF
:1005800019F58AB1209582238AB98BB1282310C02E
:100590006330710579F064307105B1F48BB1822B51
:1005A0000DC08AB1922F909589238AB98BB1282BDF
:1005B0002BB908C08BB1922F909589238BB98AB142
:1005C000282B2AB981E0089580E00895AC01477096
:1005D000552721E030E001C0220F4A95EAF733E0C9
:1005E000969587953A95E1F78230910549F08330E9
:1005F000910551F0019759F485B1282B25B908953B
:1006000088B1282B28B908958BB1282B2BB90895D0
:10061000AC014770552721E030E001C0220F4A9518
:10062000EAF733E0969587953A95E1F782309105A0
:1006300051F08330910561F0019771F485B12095F7
:10064000282325B9089588B12095282328B908952D
:100650008BB1209528232BB90895AC0147705527FD
:1006600021E030E001C0220F4A95EAF733E0969589
:1006700087953A95E1F78230910549F083309105ED
:1006800051F0019759F485B1282725B9089588B10B
:10069000282728B908958BB128272BB90895AC01D4
:1006A0004770552721E030E001C0220F4A95EAF754
:1006B00033E0969587953A95E1F78230910539F0C8
:1006C0008330910531F0019741F483B103C086B1C5
:1006D00001C089B1282381E009F480E00895611107
:1006E0000C94E6020C940803AC014770552721E0F6
:1006F00030E001C0220F4A95EAF733E096958795DE
:100700003A95E1F78230910561F08330910581F0EF
:10071000019721F584B1822391E009F490E084B13E
:100720000DC087B1822391E009F490E087B106C043
:100730008AB1822391E009F490E08AB1282381E014
:1007400009F480E0992329F081110BC083E090E047
:100750000895811109C081E090E0089580E090E063
:10076000089584E090E0089582E090E00895AC015F
:100770004770552721E030E001C0220F4A95EAF783
:1007800033E0969587953A95E1F78230910539F0F7
:100790008330910531F0019741F485B103C088B1F0
:1007A00001C08BB1282381E009F480E00895E1E6DF
:1007B000F0E080E880831082A89584B7877F84BFAB
:1007C000E0E6F0E0808188618083108208951092D5
:1007D000800084E080938100109285001092840054
:1007E000089580918400909185000895AC018091D6
:1007F0008400909185009C01241B350B283E3340DA
:10080000B0F708952091840030918500820F931FE6
:100810000C94F60381110DC080916C03882329F09C
:1008200090916D0381E0892702C080E090E08170A3
:10083000089580E0089581110BC080916C038111AF
:1008400003C080916D0302C080E090E08170089544
:1008500080E00895811103C080916C03089580E0C9
:100860000895811105C090916C0381E08927089556
:1008700080E00895CF93DF93CCE6D3E0888189832D
:100880008FE190E00E944F038883DF91CF9108951C
:1008900061E070E08FE190E00C944C02853098F4B8
:1008A000673088F421E030E001C0220F6A95EAF752
:1008B000E82FF0E0E159FC4F922F90958081892339
:1008C0004111822B80830895853080F4673070F465
:1008D00021E030E001C0220F6A95EAF7E82FF0E04E
:1008E000E159FC4F8081282381E009F480E00895DC
:1008F00060916E03E62FF0E0E159FC4F80810E9489
:10090000BA0480916E038F5F853018F480936E0374
:10091000089510926E030895EFE6F3E010821182BD
:1009200012821382148208950E9498040C948C04FD
:100930000F931F93CF93DF93C9E4D3E064E070E09B
:10094000899199910E944C0283E0C735D807B1F78D
:10095000CFE3D3E009E413E064E070E0899199917A
:100960000E944C020C171D07B9F7DF91CF911F9120
:100970000F910895FF920F931F93CF93DF93082F4A
:10098000F62EE0917403F0E0EE0FFF1FE15CFC4FE8
:10099000808191810E94E602C9E4D3E017E088815A
:1009A000998100FF03C00E94080302C00E94E60272
:1009B0000695115022961111F2CFEF2DF0E0EE0FB7
:1009C000FF1FE15CFC4F808191810E940803F0923F
:1009D0007403DF91CF911F910F91FF900895E82F3D
:1009E000F0E0EE0FFF1FEB58FC4F8081882321F0D1
:1009F000918181E0892702C080E090E081700895B4
:100A0000E82FF0E0EE0FFF1FEB58FC4F80818111C3
:100A100002C0818102C080E090E081700895E82FDB
:100A2000F0E0EE0FFF1FEB58FC4F80810895E82F98
:100A3000F0E0EE0FFF1FEB58FC4F908181E089271B
:100A40000895AF92BF92CF92DF92EF92FF920F93F1
:100A50001F93CF93DF93C5E7D3E087E5E82E83E0CC
:100A6000F82E96E0A92EBB24B39488818983F701E0
:100A7000019111917F01C8010E9474036C0164E02F
:100A800070E0C8010E944C0262E070E0C8010E9460
:100A90004C028A2D8A95F1F7C8010E944F038B25DD
:100AA0008883B601C8010E944C022296F3E0CF373A
:100AB000DF07D9F6DF91CF911F910F91FF90EF9053
:100AC000DF90CF90BF90AF9008950895009789F080
:100AD000FC012381621B67FD09C0062E000C770B09
:100AE000248130E081E0621773070CF080E08170B0
:100AF000089580E00895CF93DF93FC01892B79F16D
:100B00008181481760F59281291748F59381A62FB6
:100B1000A91BA7FD24C00A2E000CBB0BC481D0E08A
:100B2000AC17BD07E4F4622F0E94C708480F858107
:100B300090E0BD010E94D0080696242F26952695A8
:100B40002695E80FF91FE20FF11D808190E04770B4
:100B500002C0959587954A95E2F7817001C080E0C3
:100B6000DF91CF910895CF93DF93EC010E94E703CB
:100B70009E0140E050E062E17AE780E090E00E9470
:100B800009093093820320938103DF91CF91089567
:100B900080917F03909180030E94F60320917F0350
:100BA000309180038091810390918203820F931F83
:100BB0009093800380937F030895182F092FF62EBA
:100BC0000E94E7030E94F103C12FD02F8E819F81E5
:100BD0000E94F603E881F9818A819B8109952E8123
:100BE0003F818C819D81820F931F9F838E830E9402
:100BF000F103BC01E12FF02F4FEF5FEF90E09F1565
:100C000029F326813781DB01A21BB30B9D012F3F06
:100C1000BFE73B0710F4EF01D9CF3195219531099A
:100C20002417350710F4A901EF019F5F3896E7CF2D
:100C3000692F0C94640441E0611101C040E0692F08
:100C40000C944E040C941B065F926F927F928F92CD
:100C50009F92AF92BF92CF92DF92EF92FF920F934B
:100C60001F93CF93DF93562E872E942E5C01E62E92
:100C7000F72EC62F660FDD0BC81BD10987FDD39554
:100C8000072F770F110B091B110997FD1395D7FF3C
:100C900003C077247A9402C07724739417FF03C0AB
:100CA00066246A9402C066246394D7FF03C0D1957A
:100CB000C195D10917FF03C0119501951109C017FE
:100CC000D107A4F06E01D594C794F92EA51411F1A3
:100CD000692D8A2D9F2D0E941B06C01AD10AD7FEAE
:100CE00003C0CC0EDD1EF60CA70CF0CF6801D59426
:100CF000C794E82EB81471F0692D8E2D9B2D0E949B
:100D00001B06CC1ADD0AD7FE03C0C00ED11EE70CAD
:100D1000B60CF0CF692DC701DF91CF911F910F91D4
:100D2000FF90EF90DF90CF90BF90AF909F908F900B
:100D30007F906F905F900C941B06FF920F931F9310
:100D4000CF93DF93D82FF92E162FC72F042F792F8B
:100D50000E942406402F6D2F7C2F8D2F9F2D0E94E7
:100D60002406402F612F7C2F812F9F2D0E94240667
:100D7000402F612F7C2F8D2F9C2F0E942406DF9106
:100D8000CF911F910F91FF9008950E948C04E9E28A
:100D9000F1E0118A14860895DF92EF92FF920F938B
:100DA0001F93CF93DF93D82E7B01162F0F2D8091A9
:100DB0002B0190912C01D0E0019799F50F2D0D1B7F
:100DC000E0913101F09132018181C0E0D817B8F48F
:100DD0008091310190913201FC012281C21768F4A7
:100DE0002C2F4D2F6D2D0E947B05682F8E2D8C0F83
:100DF000902F0E941B06CF5FEBCFDF5FDFCFE0912C
:100E00003101F09132018281C81740F460E08E2DEB
:100E10008C0F902F0E941B06CF5FF1CF015030C086
:100E2000DF5F1E2D1D0FE0913101F09132018181B4
:100E3000C0E0D817A8F48091310190913201FC01F3
:100E40002281C21768F72C2F4D2F6D2D0E947B0534
:100E5000682F812F9F2D9C0F0E941B06CF5FEBCF29
:100E6000E0913101F09132018281C81740F460E0D5
:100E7000812F9F2D9C0F0E941B06CF5FF1CF1F5F1C
:100E8000812F902FDF91CF911F910F91FF90EF90C5
:100E9000DF9008950F931F93CF938C01C0E0F8016A
:100EA00081918F01882341F00E94CC06BC01CF5F65
:100EB000853014F477FFF3CF8C2FCF911F910F91D2
:100EC00008950F931F93CF93DF93109235014093B2
:100ED0003601109239010091310110913201011552
:100EE000110509F449C09B01EC01F8018181609171
:100EF0002F017091300190E00E94D008BC018091D8
:100F00003301909134010E94E108CB016AE070E066
:100F10000E94D008909338018093370130932E01BE
:100F200020932D0140E250E0BE018AE391E00E944F
:100F3000A8098091290190912A010197E9F4FE0105
:100F400001900020E9F73197BF016C1B7D0BF80180
:100F500081818F5F0E94C708815020912B013091C1
:100F60002C012130310511F095E001C097E0981770
:100F700018F48EEF80933901DF91CF911F910F917B
:100F8000089520912B0130912C012130310511F071
:100F900070E001C076E04FEF60E00E9461070895C5
:100FA00090E09093300180932F01089590932A014F
:100FB00080932901089590932C0180932B0108952B
:100FC0009093320180933101089580918303909131
:100FD00084030196909384038093830320913701C7
:100FE000309138018217930708F469C01092840386
:100FF00010928303E0913501F0E0E75DFE4F8189B7
:1010000081110AC080913601823008F458C08150A5
:1010100080933601109235018091350190E0FC01FA
:10102000E75DFE4F2189222309F449C0409129013F
:1010300050912A01209139014115510521F041308B
:10104000510599F024C0211122C060912D017091A9
:101050002E01865C9E4F0E944A0790E00197909176
:101060003501890F8093350112C060912D01709177
:101070002E0140912B0150912C014130510511F46A
:10108000720F01C0621B865C9E4F0E944A078091CE
:1010900039018F5F80933901082E000C990BE09184
:1010A0003101F0913201218130E0281739073CF4F9
:1010B00010923901809135018F5F809335010C9436
:1010C0007804CF93DF93C9E2D1E09B878A870E949F
:1010D000940484E190E09F838E83DF91CF910C9400
:1010E000C506CF93DF93CDB7DEB7A0970FB6F894C0
:1010F000DEBF0FBECDBF0E94D7030E94650588EEFC
:1011000093E00E94610841E064E076E084E090E0D2
:101110000E942406CE01019620E2FC0111922A953C
:10112000E9F729E530E03A83298320E031E03C8388
:101130002B834CE25AE05E834D8364EB70E07A8748
:1011400069873C872B875E874D874FE850E05A8B35
:10115000498B3C8B2B8B42E45FE05E8B4D8B41E7F0
:1011600050E05A8F498F3C8F2B8F2FE130E03E8F1C
:101170002D8F64E00E94DD0580E090E0A0960FB620
:10118000F894DEBF0FBECDBFDF91CF91089500244C
:1011900080FD060E660F11F08695D1F7802D08951B
:1011A0000024552704C0080E591F880F991F009767
:1011B00029F076956795B8F37105B9F7802D952FCD
:1011C0000895AA1BBB1B51E107C0AA1FBB1FA6178E
:1011D000B70710F0A61BB70B881F991F5A95A9F7E0
:1011E00080959095BC01CD01089597FB072E16F4CC
:1011F000009407D077FD09D00E94E10807FC05D0D4
:101200003EF4909581959F4F0895709561957F4F1D
:101210000895052E97FB1EF400940E94200957FDA7
:1012200007D00E94280907FC03D04EF40C94200933
:1012300050954095309521953F4F4F4F5F4F089502
:1012400090958095709561957F4F8F4F9F4F089532
:10125000A1E21A2EAA1BBB1BFD010DC0AA1FBB1FBA
:10126000EE1FFF1FA217B307E407F50720F0A21B2C
:10127000B30BE40BF50B661F771F881F991F1A9499
:1012800069F760957095809590959B01AC01BD01C3
:10129000CF0108958F929F92AF92BF92CF92DF922B
:1012A000EF92FF92CF93DF93EC01688179818A817D
:1012B0009B81611571058105910521F464E279ED49
:1012C0008BE597E02DE133EF41E050E00E94090902
:1012D00049015A0127EA31E440E050E00E94B70991
:1012E0006B017C012CEE34EF4FEF5FEFC501B401D1
:1012F0000E94B709DC01CB018C0D9D1DAE1DBF1DE9
:10130000B7FF03C00197A109B04888839983AA83D6
:10131000BB839F77DF91CF91FF90EF90DF90CF90CD
:10132000BF90AF909F908F9008950E944A090895B2
:101330008AE591E00E944A090895A0E0B0E0809318
:101340005A0190935B01A0935C01B0935D010895F5
:10135000FB01DC014150504048F001900D9200200B
:10136000C9F701C01D9241505040E0F70895EE27A3
:10137000FF27AA27BB2708C0A20FB31FE41FF51F32
:10138000220F331F441F551F9695879577956795B4
:1013900098F37040A9F7009799F7BD01CF01089520
:0413A000F894FFCFEF
:1013A4000300060000000000000101010000FFFF2F
:1013B400FF08000000000000000000000000000022
:1013C400000000000000FB0000000000000000140A
:1013D4000000000000000000000000000000000009
:1013E40000000000000000000000000000000000F9
:1013F40000000000000000000000010000000105E2
:1014040007205F050000000000C6186380014A2918
:101414000000004A7DF59502C417471F016322228C
:101424003206261551930586080000008808210815
:10143400028220848800805457090080904F08005D
:10144400000060880000800F00000000008C010094
:10145400222202002EE63AA303C4104288032E423D
:1014640044C4072E4207A30388A9F411023F84074A
:10147400A3032E8617A3033F424408012E4617A355
:10148400032E460FA303C018600C00C01860880028
:101494008888200802007CF0010082208888002EC1
:1014A400424400012E425BAB0344C51F63042FC6B4
:1014B40017E3032E8610A2032FC618E3033F8417F5
:1014C400C2073F841742002E861EA30731C61F633E
:1014D400048E10428803104218A30331955152041C
:1014E400218410C20771D71A630471D61C63042EB9
:1014F400C618A3032FC61742002EC65893052FC63D
:101504001763042E0607A3039F1042080131C6186F
:10151400A30331C618150131C65AAB02312AA2629F
:1015240004312A4208011F2222C207278410C20163
:1015340020088220000E218490034445000000000E
:101544000000C00782200000000038E8A30721B48F
:1015540019E30300B810A20310DA1CA30700B8F8BB
:1015640083034C8A238400C0C7E8A10321B4196310
:10157400040418428803083084920121A4324A02E8
:10158400861042880300AC5A630400B41963040053
:10159400B818A30300BCF8420000D8EC210400B43E
:1015A40019420000B8E0E003421C21240300C418DF
:1015B400B30500C418150100C45AAB0200444554D5
:1015C4000400C4E8A103007C44C407881041080255
:1015D4008410420801821044880000888A000016A2
:1015E400000F001400170015000E000D000C000B76
:1015F400000A00090008001700160015000F001467
:0C1604000047414D45204F564552000064
:00000001FF
