:100000000C943A000C9457000C9457000C94570031
:100010000C9457000C9457000C9457000C94570004
:100020000C9457000C9457000C9457000C945700F4
:100030000C9457000C9457000C9457000C945700E4
:100040000C9457000C9457000C9457000C945700D4
:100050000C9457000C9457000C9457000C945700C4
:100060000C9457000C9457000C9457000C945700B4
:100070000C94570011241FBECFEFD4E0DEBFCDBFDC
:1000800012E0A0E0B1E0E8E1F4E102C005900D92D9
:10009000A032B107D9F722E0A0E2B2E001C01D9280
:1000A000A934B207E1F70E94A3080C940A0A0C9441
:1000B0000000CF93DF93FC0127A1211114C021A5DB
:1000C000211111C0EC010E94F70641E064E076E0E6
:1000D00084E090E00E945606CE010E946A01CE01A3
:1000E00045960E940A02DF91CF910C9417080F9356
:1000F0001F93CF93DF93EC018FA181111AC089A5C3
:10010000811117C08E010B5E1F4FAE014A5D5F4F1C
:10011000BE016B5D7F4FC8010E947101AE01495D58
:100120005F4FBE01C801DF91CF911F910F910C94D9
:100130002E02DF91CF911F910F9108950F931F937E
:10014000FC0187A181111AC081A5811117C080818E
:1001500091819583848382819381978386838F01A4
:100160000D5E1F4F9F012F5E3F4FAF01475F5F4FF7
:10017000BF01685F7F4FCF010E9408011F910F915F
:100180000895CF93DF93EC0189A5882399F08AA580
:10019000811107C081E08AA70E94F7068EEF91E0E7
:1001A00015C00E946C0480E00E943C04882369F121
:1001B00019A62BC08FA1882341F188A581110AC0FF
:1001C00081E088A70E94F7068AE092E0DF91CF9154
:1001D0000C94F3070E946C0480E00E943C04882386
:1001E000A1F083E090E09983888386E090E09B8390
:1001F0008A8318861C8A1B8A1DA28BEF8EA31FA2DE
:1002000018A6188E1C8E18A21CA2DF91CF910895FB
:10021000AF92BF92CF92DF92EF92FF920F931F9314
:10022000CF93DF93EC017B015A0169010E945305D2
:1002300080E00E944105882321F08A819B810197FB
:1002400008C082E00E944105882341F08A819B8199
:1002500001968730910510F49B838A830E946C0479
:10026000F701808181110BC00E943C04882319F0A2
:1002700081E0F7018083F7018081882301F1F80193
:1002800080819181F501E80FF91F20818881998192
:10029000821B910927FD939599838883F8018081BA
:1002A0009181019691838083F601208131818217AB
:1002B000930729F4F80111821082F7011082DF916F
:1002C000CF911F910F91FF90EF90DF90CF90BF9053
:1002D000AF900895FC0161E0808192810E944D06FB
:1002E0000895CF92DF92EF92FF920F931F93CF93D7
:1002F000DF93EC018B016A01DA018C9184300CF4FC
:1003000049C0FB018081843008F042C0E82EF12C06
:10031000EE0CFF1CEE0CFF1CEC0EFD1E0E94D20921
:1003200062E070E00E942F099C0191E0232B09F408
:1003300090E0D70112969C93D801EC91F0E0EE0F7B
:10034000FF1FEE0FFF1FEC0FFD1F8FEF8183EC905F
:10035000F12CEE0CFF1CEE0CFF1CEC0EFD1E0E949F
:10036000D20962E070E00E942F098F5FF70180835D
:10037000D801EC91F0E0EE0FFF1FEE0FFF1FEC0F26
:10038000FD1F81E083838C918F5F8C93F601108237
:1003900080E004C08F5FDA018C93FACFE82FF0E0A1
:1003A000EE0FFF1FEE0FFF1FEC0FFD1F9381992330
:1003B00019F091819F5F918391819730FCF01382B6
:1003C0004C815D816E817F81488359836A837B8301
:1003D000488559856A857B854C835D836E837F83E1
:1003E0004C855D856E857F85488759876A877B87C1
:1003F0001F86F80190819150908381508F5F8430E7
:1004000068F2DF91CF911F910F91FF90EF90DF90F5
:10041000CF9008950F931F93CF93DF93EC018C013E
:10042000005F1F4F8B81882381F0888199812A8109
:10043000222329F061E0680F41E0792F04C071E0C8
:10044000790F41E0682F0E9456062496C017D10705
:1004500049F7DF91CF911F910F910895CF92DF92CD
:10046000FF920F931F93CF93DF93DB01FC01BC013D
:10047000605F7F4FFF24F3948381882399F180810B
:100480002181082E000C990BCD91DC9111978C17CE
:100490009D0771F41296CD90DC901397022F022ED7
:1004A000000C110B0C151D0519F4EA01F8821AC095
:1004B0003281332341F00196C817D90799F4022EEF
:1004C000000C330B08C08C179D0761F4022E000C42
:1004D000330B2F5F3F4F12968D919C9113972817E6
:1004E000390719F334966E177F0731F6DF91CF91F4
:1004F0001F910F91FF90DF90CF900895AC0147704E
:10050000552721E030E001C0220F4A95EAF733E099
:10051000969587953A95E1F78230910591F1833070
:10052000910509F459C0019709F080C06230710546
:10053000B1F058F46130710509F078C084B12095AC
:10054000822384B985B1282311C06330710581F0FD
:100550006430710509F06AC085B1822B0DC084B189
:10056000922F9095892384B985B1282B25B95CC039
:1005700085B1922F9095892385B984B1282B24B910
:1005800053C062307105B1F058F46130710509F063
:100590004DC087B12095822387B988B1282311C027
:1005A0006330710581F06430710509F03FC088B196
:1005B000822B0DC087B1922F9095892387B988B17E
:1005C000282B28B931C088B1922F9095892388B9FA
:1005D00087B1282B27B928C062307105A1F050F4EB
:1005E0006130710519F58AB1209582238AB98BB1E2
:1005F000282310C06330710579F064307105B1F4BF
:100600008BB1822B0DC08AB1922F909589238AB924
:100610008BB1282B2BB908C08BB1922F90958923D1
:100620008BB98AB1282B2AB981E0089580E008951A
:10063000AC014770552721E030E001C0220F4A95F8
:10064000EAF733E0969587953A95E1F78230910580
:1006500049F08330910551F0019759F485B1282B69
:1006600025B9089588B1282B28B908958BB1282B76
:100670002BB90895AC014770552721E030E001C047
:10068000220F4A95EAF733E0969587953A95E1F778
:100690008230910551F08330910561F0019771F43A
:1006A00085B12095282325B9089588B12095282360
:1006B00028B908958BB1209528232BB90895AC0152
:1006C0004770552721E030E001C0220F4A95EAF734
:1006D00033E0969587953A95E1F78230910549F098
:1006E0008330910551F0019759F485B1282725B938
:1006F000089588B1282728B908958BB128272BB9E8
:100700000895AC014770552721E030E001C0220F69
:100710004A95EAF733E0969587953A95E1F7823066
:10072000910539F08330910531F0019741F483B19F
:1007300003C086B101C089B1282381E009F480E0BB
:10074000089561110C9418030C943A03AC0147709E
:10075000552721E030E001C0220F4A95EAF733E047
:10076000969587953A95E1F78230910561F083304F
:10077000910581F0019721F584B1822391E009F47C
:1007800090E084B10DC087B1822391E009F490E03C
:1007900087B106C08AB1822391E009F490E08AB162
:1007A000282381E009F480E0992329F081110BC00E
:1007B00083E090E00895811109C081E090E0089500
:1007C00080E090E0089584E090E0089582E090E079
:1007D0000895AC014770552721E030E001C0220F99
:1007E0004A95EAF733E0969587953A95E1F7823096
:1007F000910539F08330910531F0019741F485B1CD
:1008000003C088B101C08BB1282381E009F480E0E6
:100810000895E1E6F0E080E880831082A89584B72F
:10082000877F84BFE0E6F0E080818861808310826A
:1008300008951092800084E08093810010928500DA
:10084000109284000895809184009091850008950D
:10085000AC0180918400909185009C01241B350B94
:10086000283E3340B0F708952091840030918500F0
:10087000820F931F0C94280481110DC080912002D7
:10088000882329F09091210281E0892702C080E02D
:1008900090E08170089580E0089581110BC08091EF
:1008A0002002811103C08091210202C080E090E00B
:1008B0008170089580E00895811103C08091200225
:1008C000089580E00895811105C09091200281E093
:1008D0008927089580E00895CF93DF93C0E2D2E0A6
:1008E000888189838FE190E00E9481038883DF9172
:1008F000CF91089561E070E08FE190E00C947E026A
:10090000853098F4673088F421E030E001C0220F90
:100910006A95EAF7E82FF0E0ED5DFD4F922F909594
:10092000808189234111822B80830895853080F452
:10093000673070F421E030E001C0220F6A95EAF7D9
:10094000E82FF0E0ED5DFD4F8081282381E009F480
:1009500080E0089560912202E62FF0E0ED5DFD4F0A
:1009600080810E94EC04809122028F5F853018F410
:10097000809322020895109222020895E3E2F2E0A9
:100980001082118212821382148208950E94CA0476
:100990000C94BE040F931F93CF93DF93C6EED1E068
:1009A00064E070E0899199910E947E0281E0C43FE9
:1009B000D807B1F7CCEDD1E006EE11E064E070E0CD
:1009C000899199910E947E020C171D07B9F7DF915A
:1009D000CF911F910F910895FF920F931F93CF9383
:1009E000DF93082FF62EE0912802F0E0EE0FFF1FB4
:1009F000E452FE4F808191810E941803C6EED1E03F
:100A000017E08881998100FF03C00E943A0302C069
:100A10000E9418030695115022961111F2CFEF2D66
:100A2000F0E0EE0FFF1FE452FE4F808191810E94A3
:100A30003A03F0922802DF91CF911F910F91FF901E
:100A40000895E82FF0E0EE0FFF1FE75DFD4F808176
:100A5000882321F0918181E0892702C080E090E025
:100A600081700895E82FF0E0EE0FFF1FE75DFD4F66
:100A70008081811102C0818102C080E090E081709C
:100A80000895E82FF0E0EE0FFF1FE75DFD4F808136
:100A90000895E82FF0E0EE0FFF1FE75DFD4F908116
:100AA00081E089270895AF92BF92CF92DF92EF92B3
:100AB000FF920F931F93CF93DF93C9E2D2E084EFAD
:100AC000E82E81E0F82E96E0A92EBB24B39488810D
:100AD0008983F701019111917F01C8010E94A6034A
:100AE0006C0164E070E0C8010E947E0262E070E088
:100AF000C8010E947E028A2D8A95F1F7C8010E94E2
:100B000081038B258883B601C8010E947E0222964C
:100B1000F2E0C333DF07D9F6DF91CF911F910F9138
:100B2000FF90EF90DF90CF90BF90AF900895089521
:100B3000009789F0FC012381621B67FD09C0062E26
:100B4000000C770B248130E081E0621773070CF012
:100B500080E08170089580E00895CF93DF93FC01D9
:100B6000892B79F18181481760F59281291748F521
:100B70009381A62FA91BA7FD24C00A2E000CBB0B36
:100B8000C481D0E0AC17BD07E4F4622F0E940109D4
:100B9000480F858190E0BD010E940A090696242F26
:100BA000269526952695E80FF91FE20FF11D808105
:100BB00090E0477002C0959587954A95E2F781705D
:100BC00001C080E0DF91CF910895CF93DF93EC01D6
:100BD0000E9419049E0140E050E062E17AE780E063
:100BE00090E00E9443093093360220933502DF9152
:100BF000CF91089580913302909134020E9428048D
:100C00002091330230913402809135029091360266
:100C1000820F931F90933402809333020895182F0C
:100C2000092FF62E0E9419040E942304C12FD02FF1
:100C30008E819F810E942804E881F9818A819B81AD
:100C400009952E813F818C819D81820F931F9F8307
:100C50008E830E942304BC01E12FF02F4FEF5FEF42
:100C600090E09F1529F326813781DB01A21BB30B8E
:100C70009D012F3FBFE73B0710F4EF01D9CF31951E
:100C8000219531092417350710F4A901EF019F5F61
:100C90003896E7CF692F0C94960441E0611101C0AA
:100CA00040E0692F0C9480040C944D065F926F9283
:100CB0007F928F929F92AF92BF92CF92DF92EF92EC
:100CC000FF920F931F93CF93DF93562E872E942E70
:100CD0005C01E62EF72EC62F660FDD0BC81BD1096F
:100CE00087FDD395072F770F110B091B110997FD6E
:100CF0001395D7FF03C077247A9402C077247394A6
:100D000017FF03C066246A9402C066246394D7FF69
:100D100003C0D195C195D10917FF03C01195019565
:100D20001109C017D107A4F06E01D594C794F92E0C
:100D3000A51411F1692D8A2D9F2D0E944D06C01A10
:100D4000D10AD7FE03C0CC0EDD1EF60CA70CF0CFE7
:100D50006801D594C794E82EB81471F0692D8E2DD2
:100D60009B2D0E944D06CC1ADD0AD7FE03C0C00E93
:100D7000D11EE70CB60CF0CF692DC701DF91CF91E2
:100D80001F910F91FF90EF90DF90CF90BF90AF90A9
:100D90009F908F907F906F905F900C944D06FF9284
:100DA0000F931F93CF93DF93D82FF92E162FC72FB2
:100DB000042F792F0E945606402F6D2F7C2F8D2FE8
:100DC0009F2D0E945606402F612F7C2F812F9F2D33
:100DD0000E945606402F612F7C2F8D2F9C2F0E9442
:100DE0005606DF91CF911F910F91FF9008950E94B9
:100DF000BE04EBE2F1E0118A14860895DF92EF92CF
:100E0000FF920F931F93CF93DF93D82E7B01162F62
:100E10000F2D80912D0190912E01D0E0019799F531
:100E20000F2D0D1BE0913301F09134018181C0E061
:100E3000D817B8F48091330190913401FC012281DC
:100E4000C21768F42C2F4D2F6D2D0E94AD05682F11
:100E50008E2D8C0F902F0E944D06CF5FEBCFDF5F62
:100E6000DFCFE0913301F09134018281C81740F463
:100E700060E08E2D8C0F902F0E944D06CF5FF1CF3A
:100E8000015030C0DF5F1E2D1D0FE0913301F09146
:100E900034018181C0E0D817A8F48091330190918A
:100EA0003401FC012281C21768F72C2F4D2F6D2DC4
:100EB0000E94AD05682F812F9F2D9C0F0E944D062B
:100EC000CF5FEBCFE0913301F09134018281C817FD
:100ED00040F460E0812F9F2D9C0F0E944D06CF5F54
:100EE000F1CF1F5F812F902FDF91CF911F910F9135
:100EF000FF90EF90DF9008950F931F93CF938C0195
:100F0000C0E0F80181918F01882341F00E94FE0624
:100F1000BC01CF5F853014F477FFF3CF8C2FCF91D6
:100F20001F910F9108950F931F93CF93DF9310920A
:100F300037014093380110923B0100913301109129
:100F400034010115110509F449C09B01EC01F801B8
:100F50008181609131017091320190E00E940A0913
:100F6000BC0180913501909136010E941B09CB0193
:100F70006AE070E00E940A0990933A018093390177
:100F80003093300120932F0140E250E0BE018CE30A
:100F900091E00E94E20980912B0190912C01019730
:100FA000E9F4FE0101900020E9F73197BF016C1BC5
:100FB0007D0BF80181818F5F0E9401098150209192
:100FC0002D0130912E012130310511F095E001C045
:100FD00097E0981718F48EEF80933B01DF91CF9143
:100FE0001F910F91089520912D0130912E012130F4
:100FF000310511F070E001C076E04FEF60E00E9433
:101000009307089590E09093320180933101089501
:1010100090932C0180932B01089590932E0180933F
:101020002D010895909334018093330108958091A8
:1010300037029091380201969093380280933702DC
:101040002091390130913A018217930708F469C061
:101050001092380210923702E0913701F0E0E55D1E
:10106000FE4F818981110AC080913801823008F4D5
:1010700058C0815080933801109237018091370118
:1010800090E0FC01E55DFE4F2189222309F449C06F
:1010900040912B0150912C0120913B0141155105AC
:1010A00021F04130510599F024C0211122C06091F6
:1010B0002F0170913001845C9E4F0E947C0790E06C
:1010C000019790913701890F8093370112C0609189
:1010D0002F017091300140912D0150912E0141302E
:1010E000510511F4720F01C0621B845C9E4F0E9477
:1010F0007C0780913B018F5F80933B01082E000CA1
:10110000990BE0913301F0913401218130E02817EF
:1011100039073CF410923B01809137018F5F809337
:1011200037010C94AA04CF93DF93CBE2D1E09B87E5
:101130008A870E94C60484E190E09F838E83DF91BA
:10114000CF910C94F706CF93DF93CDB7DEB7A0977E
:101150000FB6F894DEBF0FBECDBF0E9409040E94F7
:10116000970588EE93E00E94930880E691E00E9444
:1011700012088EE10E94020881E090E00E940808B7
:1011800081E090E00E940D08CE01019620E2FC0172
:1011900011922A95E9F721EC30E03A83298320E087
:1011A00031E03C832B834CE25AE05E834D836EE951
:1011B00070E07A8769873C872B875E874D8747E792
:1011C00050E05A8B498B3C8B2B8B42E45FE05E8B6B
:1011D0004D8B49E550E05A8F498F3C8F2B8F2FE183
:1011E00030E03E8F2D8F64E00E940F0680E090E09B
:1011F000A0960FB6F894DEBF0FBECDBFDF91CF91A2
:101200000895002480FD060E660F11F08695D1F733
:10121000802D08950024552704C0080E591F880FFB
:10122000991F009729F076956795B8F37105B9F77E
:10123000802D952F0895AA1BBB1B51E107C0AA1F43
:10124000BB1FA617B70710F0A61BB70B881F991F67
:101250005A95A9F780959095BC01CD01089597FB0B
:10126000072E16F4009407D077FD09D00E941B09C1
:1012700007FC05D03EF4909581959F4F0895709599
:1012800061957F4F0895052E97FB1EF400940E94F0
:101290005A0957FD07D00E94620907FC03D04EF49B
:1012A0000C945A0950954095309521953F4F4F4FDA
:1012B0005F4F089590958095709561957F4F8F4F02
:1012C0009F4F0895A1E21A2EAA1BBB1BFD010DC062
:1012D000AA1FBB1FEE1FFF1FA217B307E407F507E6
:1012E00020F0A21BB30BE40BF50B661F771F881FC2
:1012F000991F1A9469F760957095809590959B0158
:10130000AC01BD01CF0108958F929F92AF92BF9221
:10131000CF92DF92EF92FF92CF93DF93EC0168813F
:1013200079818A819B81611571058105910521F47F
:1013300064E279ED8BE597E02DE133EF41E050E099
:101340000E94430949015A0127EA31E440E050E094
:101350000E94F1096B017C012CEE34EF4FEF5FEF3F
:10136000C501B4010E94F109DC01CB018C0D9D1D6A
:10137000AE1DBF1DB7FF03C00197A109B048888308
:101380009983AA83BB839F77DF91CF91FF90EF90E2
:10139000DF90CF90BF90AF909F908F9008950E9464
:1013A000840908958CE591E00E9484090895A0E0E5
:1013B000B0E080935C0190935D01A0935E01B093D7
:1013C0005F010895FB01DC014150504048F001905D
:1013D0000D920020C9F701C01D9241505040E0F726
:1013E0000895EE27FF27AA27BB2708C0A20FB31F27
:1013F000E41FF51F220F331F441F551F9695879535
:101400007795679598F37040A9F7009799F7BD0114
:08141000CF010895F894FFCF0D
:101418000300060000000000000101010000FFFFBA
:10142800FF080000000000000000000000000000AD
:10143800000000000000FB000001000000000000A8
:101448000014000000000000000000000000000080
:101458000000000000000000000000000000000084
:101468000000000000000000000000000100000073
:10147800010305203B0200009220EB737D5FDE3DF7
:10148800A552EA7A14004A222229BA2ED00500145D
:10149800C0010020A4126A2B9A74A372A338ED49E4
:1014A8008F38CE2AA712AA2AAE4910041014544421
:1014B800380E11152A250000EA5BEB3A4F726B3B98
:1014C800CF73CF134F7AED5B9774247B5D564972C7
:1014D800FD5B6F5B6F7BEF136F7FEF57CE38972401
:1014E8006D7B6D2BED5FAD5AAD24A77216000F0012
:1014F8001400170015000E000D000C000B000A0068
:10150800090008001700160015000F00140020201D
:1015180044494E4F5341555220002047414D4520E4
:101528004F564552202053434F52453A3130200000
:00000001FF
