:100000000C943A000C9457000C9457000C94570031
:100010000C9457000C9457000C9457000C94570004
:100020000C9457000C9457000C9457000C945700F4
:100030000C9457000C9457000C9457000C945700E4
:100040000C9457000C9457000C9457000C945700D4
:100050000C9457000C9457000C9457000C945700C4
:100060000C9457000C9457000C9457000C945700B4
:100070000C94570011241FBECFEFD4E0DEBFCDBFDC
:1000800012E0A0E0B1E0E4EAFAE102C005900D92CE
:10009000A232B107D9F722E0A2E2B2E001C01D927C
:1000A000AB33B207E1F70E94E2080C94500D0C94B8
:1000B0000000CF93DF93FC0127A1211114C021A5DB
:1000C000211111C0EC010E94360741E064E076E0A6
:1000D00084E090E00E949506CE010E94A901CE0125
:1000E00045960E944902DF91CF910C9456080F93D8
:1000F0001F93CF93DF93CDB7DEB769970FB6F89410
:10010000DEBF0FBECDBF8C01FC0181A58823B9F0F5
:1001100082A5811109C081E082A70E94360780E094
:1001200092E00E94320851C00E94AB0480E00E941D
:100130007B04882309F449C0F80111A646C0F801E0
:1001400087A1882309F441C080A5811120C081E0E6
:1001500080A70E943607F80184A58F9383A58F930B
:100160008CE092E09F938F931F9289E18F938E0191
:100170000F5F1F4F1F930F930E943A0AC8010E94FE
:1001800032080FB6F894DEBF0FBECDBF1EC00E946E
:10019000AB0480E00E947B048823B9F083E090E008
:1001A000F8019183808386E090E0938382831086B8
:1001B000148A138A15A28BEF86A317A210A6108E9D
:1001C000148E10A214A214A613A669960FB6F89462
:1001D000DEBF0FBECDBFDF91CF911F910F9108956C
:1001E000FC0187A1811108C081A5811105C083A5EB
:1001F00094A5019694A783A708950F931F93CF9377
:10020000DF93EC018FA181111AC089A5811117C05C
:100210008E010B5E1F4FAE014A5D5F4FBE016B5DED
:100220007F4FC8010E94B001AE01495D5F4FBE0122
:10023000C801DF91CF911F910F910C946D02DF9156
:10024000CF911F910F9108950F931F93FC0187A1E8
:1002500081111AC081A5811117C080819181958378
:10026000848382819381978386838F010D5E1F4FE4
:100270009F012F5E3F4FAF01475F5F4FBF01685F38
:100280007F4FCF010E9447011F910F910895AF92B8
:10029000BF92CF92DF92EF92FF920F931F93CF9373
:1002A000DF93EC017B015A0169010E94920580E015
:1002B0000E948005882321F08A819B81019708C0D4
:1002C00082E00E948005882341F08A819B8101960B
:1002D0008730910510F49B838A830E94AB04F70159
:1002E000808181110BC00E947B04882319F081E07A
:1002F000F7018083F7018081882301F1F801808173
:100300009181F501E80FF91F208188819981821B75
:10031000910927FD939599838883F80180819181C4
:10032000019691838083F6012081318182179307A2
:1003300029F4F80111821082F7011082DF91CF9128
:100340001F910F91FF90EF90DF90CF90BF90AF90F3
:100350000895FC0161E0808192810E948C060895DD
:10036000CF92DF92EF92FF920F931F93CF93DF9381
:10037000EC018B016A01DA018C9184300CF449C0E4
:10038000FB018081843008F042C0E82EF12CEE0C95
:10039000FF1CEE0CFF1CEC0EFD1E0E941B0A62E00F
:1003A00070E00E9478099C0191E0232B09F490E011
:1003B000D70112969C93D801EC91F0E0EE0FFF1F4D
:1003C000EE0FFF1FEC0FFD1F8FEF8183EC90F12CE0
:1003D000EE0CFF1CEE0CFF1CEC0EFD1E0E941B0A17
:1003E00062E070E00E9478098F5FF7018083D80196
:1003F000EC91F0E0EE0FFF1FEE0FFF1FEC0FFD1F63
:1004000081E083838C918F5F8C93F601108280E072
:1004100004C08F5FDA018C93FACFE82FF0E0EE0F83
:10042000FF1FEE0FFF1FEC0FFD1F9381992319F0A3
:1004300091819F5F918391819730FCF013824C8171
:100440005D816E817F81488359836A837B83488580
:1004500059856A857B854C835D836E837F834C855C
:100460005D856E857F85488759876A877B871F866C
:10047000F80190819150908381508F5F843068F2B1
:10048000DF91CF911F910F91FF90EF90DF90CF9070
:1004900008950F931F93CF93DF93EC018C01005FBE
:1004A0001F4F8B81882381F0888199812A812223A3
:1004B00029F061E0680F41E0792F04C071E0790F05
:1004C00041E0682F0E9495062496C017D10749F78E
:1004D000DF91CF911F910F910895CF92DF92FF92FC
:1004E0000F931F93CF93DF93DB01FC01BC01605F8F
:1004F0007F4FFF24F3948381882399F180812181A8
:10050000082E000C990BCD91DC9111978C179D074B
:1005100071F41296CD90DC901397022F022E000CEE
:10052000110B0C151D0519F4EA01F8821AC032816D
:10053000332341F00196C817D90799F4022E000C15
:10054000330B08C08C179D0761F4022E000C330B8F
:100550002F5F3F4F12968D919C9113972817390763
:1005600019F334966E177F0731F6DF91CF911F9103
:100570000F91FF90DF90CF900895AC014770552701
:1005800021E030E001C0220F4A95EAF733E096956A
:1005900087953A95E1F78230910591F18330910585
:1005A00009F459C0019709F080C062307105B1F0BB
:1005B00058F46130710509F078C084B12095822328
:1005C00084B985B1282311C06330710581F064308E
:1005D000710509F06AC085B1822B0DC084B1922FDC
:1005E0009095892384B985B1282B25B95CC085B144
:1005F000922F9095892385B984B1282B24B953C0B3
:1006000062307105B1F058F46130710509F04DC0E8
:1006100087B12095822387B988B1282311C0633020
:10062000710581F06430710509F03FC088B1822BFB
:100630000DC087B1922F9095892387B988B1282B57
:1006400028B931C088B1922F9095892388B987B194
:10065000282B27B928C062307105A1F050F4613011
:10066000710519F58AB1209582238AB98BB12823A7
:1006700010C06330710579F064307105B1F48BB14D
:10068000822B0DC08AB1922F909589238AB98BB1A4
:10069000282B2BB908C08BB1922F909589238BB949
:1006A0008AB1282B2AB981E0089580E00895AC0131
:1006B0004770552721E030E001C0220F4A95EAF744
:1006C00033E0969587953A95E1F78230910549F0A8
:1006D0008330910551F0019759F485B1282B25B944
:1006E000089588B1282B28B908958BB1282B2BB9F0
:1006F0000895AC014770552721E030E001C0220F7A
:100700004A95EAF733E0969587953A95E1F7823076
:10071000910551F08330910561F0019771F485B135
:100720002095282325B9089588B12095282328B934
:1007300008958BB1209528232BB90895AC014770FB
:10074000552721E030E001C0220F4A95EAF733E057
:10075000969587953A95E1F78230910549F0833077
:10076000910551F0019759F485B1282725B90895CD
:1007700088B1282728B908958BB128272BB9089567
:10078000AC014770552721E030E001C0220F4A95A7
:10079000EAF733E0969587953A95E1F7823091052F
:1007A00039F08330910531F0019741F483B103C0F2
:1007B00086B101C089B1282381E009F480E0089561
:1007C00061110C9457030C947903AC0147705527C1
:1007D00021E030E001C0220F4A95EAF733E0969518
:1007E00087953A95E1F78230910561F08330910564
:1007F00081F0019721F584B1822391E009F490E022
:1008000084B10DC087B1822391E009F490E087B1F3
:1008100006C08AB1822391E009F490E08AB12823CE
:1008200081E009F480E0992329F081110BC083E075
:1008300090E00895811109C081E090E0089580E082
:1008400090E0089584E090E0089582E090E00895BB
:10085000AC014770552721E030E001C0220F4A95D6
:10086000EAF733E0969587953A95E1F7823091055E
:1008700039F08330910531F0019741F485B103C01F
:1008800088B101C08BB1282381E009F480E008958C
:10089000E1E6F0E080E880831082A89584B7877F46
:1008A00084BFE0E6F0E08081886180831082089553
:1008B0001092800084E08093810010928500109255
:1008C0008400089580918400909185000895AC0182
:1008D00080918400909185009C01241B350B283E5B
:1008E0003340B0F708952091840030918500820F45
:1008F000931F0C94670481110DC0809122028823FC
:1009000029F09091230281E0892702C080E090E0E5
:100910008170089580E0089581110BC080912202BA
:10092000811103C08091230202C080E090E08170B9
:10093000089580E00895811103C0809122020895F6
:1009400080E00895811105C09091220281E08927FD
:10095000089580E00895CF93DF93C2E2D2E08881CA
:1009600089838FE190E00E94C0038883DF91CF915B
:10097000089561E070E08FE190E00C94BD02853055
:1009800098F4673088F421E030E001C0220F6A95C6
:10099000EAF7E82FF0E0EB5DFD4F922F9095808114
:1009A00089234111822B80830895853080F467303C
:1009B00070F421E030E001C0220F6A95EAF7E82FD9
:1009C000F0E0EB5DFD4F8081282381E009F480E0B9
:1009D000089560912402E62FF0E0EB5DFD4F8081E9
:1009E0000E942B05809124028F5F853018F480933C
:1009F00024020895109224020895E5E2F2E01082A4
:100A0000118212821382148208950E9409050C94A7
:100A1000FD040F931F93CF93DF93C8EED1E064E002
:100A200070E0899199910E94BD0281E0C63FD8078C
:100A3000B1F7CEEDD1E008EE11E064E070E089910D
:100A400099910E94BD020C171D07B9F7DF91CF9154
:100A50001F910F910895FF920F931F93CF93DF93F0
:100A6000082FF62EE0912A02F0E0EE0FFF1FE2526F
:100A7000FE4F808191810E945703C8EED1E017E0BC
:100A80008881998100FF03C00E94790302C00E94FF
:100A900057030695115022961111F2CFEF2DF0E079
:100AA000EE0FFF1FE252FE4F808191810E94790379
:100AB000F0922A02DF91CF911F910F91FF9008953C
:100AC000E82FF0E0EE0FFF1FE55DFD4F80818823EA
:100AD00021F0918181E0892702C080E090E081705F
:100AE0000895E82FF0E0EE0FFF1FE55DFD4F8081D8
:100AF000811102C0818102C080E090E08170089580
:100B0000E82FF0E0EE0FFF1FE55DFD4F80810895B7
:100B1000E82FF0E0EE0FFF1FE55DFD4F908181E0D3
:100B200089270895AF92BF92CF92DF92EF92FF9202
:100B30000F931F93CF93DF93CBE2D2E086EFE82EA3
:100B400081E0F82E96E0A92EBB24B3948881898396
:100B5000F701019111917F01C8010E94E5036C0129
:100B600064E070E0C8010E94BD0262E070E0C8016C
:100B70000E94BD028A2D8A95F1F7C8010E94C00328
:100B80008B258883B601C8010E94BD022296F2E03F
:100B9000C533DF07D9F6DF91CF911F910F91FF90F9
:100BA000EF90DF90CF90BF90AF9008950895009799
:100BB00089F0FC012381621B67FD09C0062E000C31
:100BC000770B248130E081E0621773070CF080E03E
:100BD0008170089580E00895CF93DF93FC01892B05
:100BE00079F18181481760F59281291748F5938141
:100BF000A62FA91BA7FD24C00A2E000CBB0BC48185
:100C0000D0E0AC17BD07E4F4622F0E944A09480FF8
:100C1000858190E0BD010E9453090696242F2695F8
:100C200026952695E80FF91FE20FF11D808190E0CF
:100C3000477002C0959587954A95E2F7817001C08B
:100C400080E0DF91CF910895CF93DF93EC010E9474
:100C500058049E0140E050E062E17AE780E090E0D5
:100C60000E948C093093380220933702DF91CF9194
:100C7000089580913502909136020E946704209178
:100C80003502309136028091370290913802820FFE
:100C9000931F90933602809335020895182F092FE1
:100CA000F62E0E9458040E946204C12FD02F8E811C
:100CB0009F810E946704E881F9818A819B8109955F
:100CC0002E813F818C819D81820F931F9F838E8314
:100CD0000E946204BC01E12FF02F4FEF5FEF90E024
:100CE0009F1529F326813781DB01A21BB30B9D01E0
:100CF0002F3FBFE73B0710F4EF01D9CF3195219586
:100D000031092417350710F4A901EF019F5F3896C8
:100D1000E7CF692F0C94D50441E0611101C040E098
:100D2000692F0C94BF040C948C065F926F927F9293
:100D30008F929F92AF92BF92CF92DF92EF92FF92EB
:100D40000F931F93CF93DF93562E872E942E5C0123
:100D5000E62EF72EC62F660FDD0BC81BD10987FDC7
:100D6000D395072F770F110B091B110997FD1395C9
:100D7000D7FF03C077247A9402C07724739417FFB7
:100D800003C066246A9402C066246394D7FF03C03C
:100D9000D195C195D10917FF03C01195019511098E
:100DA000C017D107A4F06E01D594C794F92EA514ED
:100DB00011F1692D8A2D9F2D0E948C06C01AD10A2F
:100DC000D7FE03C0CC0EDD1EF60CA70CF0CF6801D9
:100DD000D594C794E82EB81471F0692D8E2D9B2DF3
:100DE0000E948C06CC1ADD0AD7FE03C0C00ED11EAD
:100DF000E70CB60CF0CF692DC701DF91CF911F91A1
:100E00000F91FF90EF90DF90CF90BF90AF909F90A9
:100E10008F907F906F905F900C948C06FF920F9351
:100E20001F93CF93DF93D82FF92E162FC72F042FA0
:100E3000792F0E949506402F6D2F7C2F8D2F9F2D8F
:100E40000E949506402F612F7C2F812F9F2D0E949D
:100E50009506402F612F7C2F8D2F9C2F0E94950689
:100E6000DF91CF911F910F91FF9008950E94FD0493
:100E7000EDE2F1E0118A14860895DF92EF92FF927D
:100E80000F931F93CF93DF93D82E7B01162F0F2D37
:100E900080912F0190913001D0E0019799F50F2DAD
:100EA0000D1BE0913501F09136018181C0E0D8172A
:100EB000B8F48091350190913601FC012281C2176E
:100EC00068F42C2F4D2F6D2D0E94EC05682F8E2D70
:100ED0008C0F902F0E948C06CF5FEBCFDF5FDFCFB0
:100EE000E0913501F09136018281C81740F460E04D
:100EF0008E2D8C0F902F0E948C06CF5FF1CF01506A
:100F000030C0DF5F1E2D1D0FE0913501F0913601DD
:100F10008181C0E0D817A8F4809135019091360105
:100F2000FC012281C21768F72C2F4D2F6D2D0E94D6
:100F3000EC05682F812F9F2D9C0F0E948C06CF5FA0
:100F4000EBCFE0913501F09136018281C81740F472
:100F500060E0812F9F2D9C0F0E948C06CF5FF1CF08
:100F60001F5F812F902FDF91CF911F910F91FF90E5
:100F7000EF90DF9008950F931F93CF938C01C0E003
:100F8000F80181918F01882341F00E943D07BC0147
:100F9000CF5F853014F477FFF3CF8C2FCF911F9163
:100FA0000F9108950F931F93CF93DF931092390100
:100FB00040933A0110923D010091350110913601A4
:100FC0000115110509F449C09B01EC01F80181816B
:100FD000609133017091340190E00E945309BC018B
:100FE00080913701909138010E946409CB016AE039
:100FF00070E00E94530990933C0180933B01309331
:1010000032012093310140E250E0BE018EE391E0D5
:101010000E942B0A80912D0190912E010197E9F4F5
:10102000FE0101900020E9F73197BF016C1B7D0B99
:10103000F80181818F5F0E944A09815020912F0120
:10104000309130012130310511F095E001C097E079
:10105000981718F48EEF80933D01DF91CF911F9187
:101060000F91089520912F013091300121303105E9
:1010700011F070E001C076E04FEF60E00E94D2070F
:10108000089590E0909334018093330108959093F4
:101090002E0180932D0108959093300180932F01AC
:1010A0000895909336018093350108958091390217
:1010B00090913A02019690933A02809339022091DE
:1010C0003B0130913C018217930708F469C01092EC
:1010D0003A0210923902E0913901F0E0E35DFE4FEF
:1010E000818981110AC080913A01823008F458C088
:1010F000815080933A01109239018091390190E03A
:10110000FC01E35DFE4F2189222309F449C040918F
:101110002D0150912E0120913D014115510521F0E5
:101120004130510599F024C0211122C06091310154
:1011300070913201825C9E4F0E94BB0790E0019744
:1011400090913901890F8093390112C0609131016A
:101150007091320140912F01509130014130510581
:1011600011F4720F01C0621B825C9E4F0E94BB078C
:1011700080913D018F5F80933D01082E000C990BFB
:10118000E0913501F0913601218130E028173907CF
:101190003CF410923D01809139018F5F80933901B9
:1011A0000C94E904CF93DF93CDE2D1E09B878A874B
:1011B0000E94050584E190E09F838E83DF91CF91AB
:1011C0000C943607CF93DF93CDB7DEB7A8970FB651
:1011D000F894DEBF0FBECDBF0E9448040E94D60522
:1011E00088EE93E00E94D20882E691E00E945108C6
:1011F0008EE10E94410881E090E00E94470881E072
:1012000090E00E944C08CE01019628E2FC01119268
:101210002A95E9F727E730E03A83298320E031E097
:101220003C832B834CE25AE05E834D8364E271E0A1
:101230007A8769873C872B875E874D874DEF50E023
:101240005A8B498B3C8B2B8B42E45FE05E8B4D8B42
:1012500049E550E05A8F498F3C8F2B8F4FE150E08A
:101260005E8F4D8F40EF50E05AA349A33CA32BA3C0
:1012700025E33CE03EA32DA365E00E944E0680E0FE
:1012800090E0A8960FB6F894DEBF0FBECDBFDF91F9
:10129000CF910895002480FD060E660F11F086950B
:1012A000D1F7802D08950024552704C0080E591F3A
:1012B000880F991F009729F076956795B8F3710507
:1012C000B9F7802D952F0895AA1BBB1B51E107C0CC
:1012D000AA1FBB1FA617B70710F0A61BB70B881FC6
:1012E000991F5A95A9F780959095BC01CD01089555
:1012F00097FB072E16F4009407D077FD09D00E94C3
:10130000640907FC05D03EF4909581959F4F0895A0
:10131000709561957F4F0895052E97FB1EF40094FC
:101320000E94A30957FD07D00E94AB0907FC03D018
:101330004EF40C94A30950954095309521953F4F5C
:101340004F4F5F4F089590958095709561957F4FB1
:101350008F4F9F4F0895A1E21A2EAA1BBB1BFD01C0
:101360000DC0AA1FBB1FEE1FFF1FA217B307E40784
:10137000F50720F0A21BB30BE40BF50B661F771FDC
:10138000881F991F1A9469F76095709580959095BC
:101390009B01AC01BD01CF0108958F929F92AF9246
:1013A000BF92CF92DF92EF92FF92CF93DF93EC0147
:1013B000688179818A819B8161157105810591051B
:1013C00021F464E279ED8BE597E02DE133EF41E024
:1013D00050E00E948C0949015A0127EA31E440E0BB
:1013E00050E00E94000D6B017C012CEE34EF4FEFBA
:1013F0005FEFC501B4010E94000DDC01CB018C0D33
:101400009D1DAE1DBF1DB7FF03C00197A109B048C8
:1014100088839983AA83BB839F77DF91CF91FF90C5
:10142000EF90DF90CF90BF90AF909F908F900895F6
:101430000E94CD0908958EE591E00E94CD0908959E
:10144000A0E0B0E080935E0190935F01A093600103
:10145000B09361010895FB01DC014150504048F018
:1014600001900D920020C9F701C01D9241505040DB
:10147000E0F70895AEE0B0E0E0E4FAE00C94270D68
:101480000D891E898F89988D26E02C831A83098304
:1014900097FF02C080E090E801979E838D83AE01A4
:1014A000455E5F4F698D7A8DCE0101960E946A0A72
:1014B0004D815E8157FD0AC02F8138854217530741
:1014C0000CF49A01F801E20FF31F10822E96E4E06B
:1014D0000C94430DABE0B0E0E0E7FAE00C94190D9A
:1014E0006C017B018A01FC0117821682838181FFD6
:1014F000CFC1CE0101963C01F6019381F70193FD26
:10150000859193FF81917F01882309F4BDC18532C4
:1015100039F493FD859193FF81917F01853229F400
:10152000B60190E00E94640CE7CF912C212C312C65
:10153000FFE1F315E0F08B3279F038F4803279F086
:101540008332A9F4232D206110C08D3259F08033ED
:1015500071F4232D216009C0832D8260382EE32D84
:10156000E46024C0F32DF86027C0322E29C037FC78
:101570002FC020ED280F2A3098F436FE07C0892DA1
:101580006AE00E944A09922E980E1AC0822D6AE0E3
:101590000E944A09222E280E832D8062382E10C008
:1015A0008E3231F436FC70C1E32DE0643E2E08C06B
:1015B0008C3621F4F32DF0683F2E02C0883641F4BA
:1015C000F70193FD859193FF81917F018111B0CF48
:1015D000982F9F7D9554933028F40C5F1F4F2FE375
:1015E00029830DC0833631F0833771F0833509F0DC
:1015F00059C021C0F801808189830E5F1F4F882464
:101600008394912C530113C02801F2E04F0E511C1A
:10161000F801A080B18036FE03C0692D70E002C0E1
:101620006FEF7FEFC5010E94590C4C018201F32D31
:10163000FF773F2E16C0280122E0420E511CF80110
:10164000A080B18036FE03C0692D70E002C06FEF4C
:101650007FEFC5010E944E0C4C01F32DF0683F2E28
:10166000820133FC1BC0822D90E088169906B0F4ED
:10167000B60180E290E00E94640C2A94F4CFF50158
:1016800037FC859137FE81915F01B60190E00E94A1
:10169000640C21102A9421E0821A9108811491048B
:1016A00071F7E8C0843611F0893641F5F80137FE4C
:1016B00007C060817181828193810C5F1F4F08C0D8
:1016C00060817181072E000C880B990B0E5F1F4FF4
:1016D000F32DFF763F2E97FF09C09095809570956A
:1016E00061957F4F8F4F9F4FF0683F2E2AE030E08B
:1016F000A3010E94A00C882E861845C0853731F4BE
:10170000232D2F7EB22E2AE030E025C0932D997F25
:10171000B92E8F36C1F018F4883579F0B5C080370E
:1017200019F0883721F0B0C0E92FE061BE2EB4FE79
:101730000DC0FB2DF460BF2E09C034FE0AC0292F56
:101740002660B22E06C028E030E005C020E130E07F
:1017500002C020E132E0F801B7FE07C0608171816C
:10176000828193810C5F1F4F06C06081718180E090
:1017700090E00E5F1F4FA3010E94A00C882E8618D8
:10178000FB2DFF773F2E36FE0DC0232D2E7FA22E80
:10179000891458F434FE0BC032FC09C0832D8E7EB0
:1017A000A82E05C0B82CA32C03C0B82C01C0B92C9E
:1017B000A4FE0FC0FE01E80DF11D8081803321F4ED
:1017C0009A2D997EA92E09C0A2FE06C0B394B394A7
:1017D00004C08A2D867809F0B394A3FC11C0A0FE42
:1017E00006C0B21488F4280C922C9B180EC0B214B8
:1017F00060F4B60180E290E00E94640CB394F7CFED
:10180000B21418F42B1802C0982C212CA4FE10C07E
:10181000B60180E390E00E94640CA2FE17C0A1FC18
:1018200003C088E790E002C088E590E0B6010CC0F4
:101830008A2D867859F0A1FE02C08BE201C080E2B9
:10184000A7FC8DE2B60190E00E94640C891438F484
:10185000B60180E390E00E94640C9A94F7CF8A94DA
:10186000F301E80DF11D8081B60190E00E94640C47
:101870008110F5CF222009F43FCEB60180E290E03E
:101880000E94640C2A94F6CFF6018681978102C0EB
:101890008FEF9FEF2B96E2E10C94350DFC01059044
:1018A000615070400110D8F7809590958E0F9F1F62
:1018B0000895FC016150704001900110D8F78095A7
:1018C00090958E0F9F1F08950F931F93CF93DF93D3
:1018D000FB01238121FD03C08FEF9FEF2CC022FF6E
:1018E00016C046815781248135814217530744F43D
:1018F000A081B1819D012F5F3F4F318320838C9365
:10190000268137812F5F3F4F3783268314C08B0199
:10191000EC01FB010084F185E02D0995892BE1F6AE
:10192000D80116968D919C911797019617969C93C6
:101930008E931697CE01DF91CF911F910F9108954D
:10194000FA01AA27283061F1203191F1E8946F93D0
:101950006E7F6E5F7F4F8F4F9F4FAF4FB1E040D094
:10196000B4E03ED0670F781F891F9A1FA11D680F32
:10197000791F8A1F911DA11D6A0F711D811D911D67
:10198000A11D22D009F468943F91062E000C301955
:10199000000C000C3019305D3193CEF6CF01089564
:1019A000462F4770405D4193B3E00FD0C9F7F6CFA3
:1019B000462F4F70405D4A3318F0495D31FD40526B
:1019C000419302D0A9F7EACFB4E0A6959795879501
:1019D00077956795BA95C9F70097610571050895E0
:1019E0009B01AC010A2E069457954795379527958C
:1019F000BA95C9F7620F731F841F951FA01D089524
:101A0000EE27FF27AA27BB2708C0A20FB31FE41F9A
:101A1000F51F220F331F441F551F96958795779505
:101A2000679598F37040A9F7009799F7BD01CF012A
:101A300008952F923F924F925F926F927F928F9272
:101A40009F92AF92BF92CF92DF92EF92FF920F934D
:101A50001F93CF93DF93CDB7DEB7CA1BDB0B0FB657
:101A6000F894DEBF0FBECDBF09942A883988488814
:101A70005F846E847D848C849B84AA84B984C884AA
:101A8000DF80EE80FD800C811B81AA81B981CE0FA1
:101A9000D11D0FB6F894DEBF0FBECDBFED01089586
:041AA000F894FFCFE8
:101AA4000300060000000000000101010000FFFF28
:101AB400FF0800000000000000000000000000001B
:101AC400000000000000FB00000100000000000016
:101AD40000000014000000000000000000000000EE
:101AE40000000000000000000000000000000000F2
:101AF40000000000000000000000000000000100E1
:101B04000000010305203B0200009220EB737D5F7F
:101B1400DE3DA552EA7A14004A222229BA2ED005C3
:101B24000014C0010020A4126A2B9A74A372A33873
:101B3400ED498F38CE2AA712AA2AAE4910041014F0
:101B44005444380E11152A250000EA5BEB3A4F7213
:101B54006B3BCF73CF134F7AED5B9774247B5D5649
:101B64004972FD5B6F5B6F7BEF136F7FEF57CE386E
:101B740097246D7B6D2BED5FAD5AAD24A7721600D3
:101B84000F001400170015000E000D000C000B00D0
:101B94000A00090008001700160015000F001400C1
:101BA400202044494E4F5341555220002047414D77
:101BB40045204F564552202053434F52453A256401
:021BC40000001F
:00000001FF
