:100000000C943A000C9457000C9457000C94570031
:100010000C9457000C9457000C9457000C94570004
:100020000C9457000C9457000C9457000C945700F4
:100030000C9457000C9457000C9457000C945700E4
:100040000C9457000C9457000C9457000C945700D4
:100050000C9457000C9457000C9457000C945700C4
:100060000C9457000C9457000C9457000C945700B4
:100070000C94570011241FBECFEFD4E0DEBFCDBFDC
:1000800012E0A0E0B1E0EAEFF3E102C005900D92CA
:10009000A431B107D9F722E0A4E1B2E001C01D927A
:1000A000AD33B207E1F70E948D080C94FB090C9464
:1000B0000000CF93DF93EC018FA1882359F088A52E
:1000C000811108C081E088A70E94E1068EEF91E0CF
:1000D0000E94DD078FA18823F1F088A58823D9F03D
:1000E0000E94560480E00E9426048823A1F083E049
:1000F00090E09983888386E090E09B838A831886CA
:100100001C8A1B8A1DA28BEF8EA31FA218A6188E15
:100110001C8E18A21CA2DF91CF910C940108CF93E2
:10012000DF93FC0127A1211115C0EC010E94E1061B
:1001300041E064E076E084E090E00E944006CE0179
:100140000E945401CE0145960E94F401DF91CF91A7
:100150000C940108DF91CF9108950F931F93CF93D3
:10016000DF93FC0127A1211118C0EC018C010B5E6B
:100170001F4FAC014A5D5F4FBC016B5D7F4FC801F3
:100180000E945B01AE01495D5F4FBE01C801DF9176
:10019000CF911F910F910C941802DF91CF911F9175
:1001A0000F9108950F931F93FC0127A1211117C0F0
:1001B00080819181958384838281938197838683D3
:1001C0008F010D5E1F4F9F012F5E3F4FAF01475FB5
:1001D0005F4FBF01685F7F4FCF010E94F2001F9108
:1001E0000F910895AF92BF92CF92DF92EF92FF925C
:1001F0000F931F93CF93DF93EC017B015A016901A9
:100200000E943D0580E00E942B05882321F08A8111
:100210009B81019708C082E00E942B05882341F052
:100220008A819B8101968730910510F49B838A8394
:100230000E945604F701808181110BC00E942604A0
:10024000882319F081E0F7018083F70180818823FA
:1002500001F1F80180819181F501E80FF91F2081FA
:1002600088819981821B910927FD939599838883C1
:10027000F80180819181019691838083F60120812C
:1002800031818217930729F4F80111821082F70156
:100290001082DF91CF911F910F91FF90EF90DF902F
:1002A000CF90BF90AF900895FC0161E08081928172
:1002B0000E9437060895CF92DF92EF92FF920F933C
:1002C0001F93CF93DF93EC018B016A01DA018C91CC
:1002D00084300CF449C0FB018081843008F042C0B6
:1002E000E82EF12CEE0CFF1CEE0CFF1CEC0EFD1E9C
:1002F0000E94C30962E070E00E9420099C0191E025
:10030000232B09F490E0D70112969C93D801EC912D
:10031000F0E0EE0FFF1FEE0FFF1FEC0FFD1F8FEF42
:100320008183EC90F12CEE0CFF1CEE0CFF1CEC0E0C
:10033000FD1E0E94C30962E070E00E9420098F5FE9
:10034000F7018083D801EC91F0E0EE0FFF1FEE0F74
:10035000FF1FEC0FFD1F81E083838C918F5F8C93D7
:10036000F601108280E004C08F5FDA018C93FACF2F
:10037000E82FF0E0EE0FFF1FEE0FFF1FEC0FFD1F49
:100380009381992319F091819F5F91839181973097
:10039000FCF013824C815D816E817F81488359839B
:1003A0006A837B83488559856A857B854C835D8319
:1003B0006E837F834C855D856E857F8548875987F1
:1003C0006A877B871F86F8019081915090838150C6
:1003D0008F5F843068F2DF91CF911F910F91FF9072
:1003E000EF90DF90CF9008950F931F93CF93DF93FB
:1003F000EC018C01005F1F4F8B81882381F0888185
:1004000099812A81222329F061E0680F41E0792F48
:1004100004C071E0790F41E0682F0E9440062496E5
:10042000C017D10749F7DF91CF911F910F91089520
:10043000CF92DF92FF920F931F93CF93DF93DB0155
:10044000FC01BC01605F7F4FFF24F394838188230C
:1004500099F180812181082E000C990BCD91DC91BE
:1004600011978C179D0771F41296CD90DC9013971D
:10047000022F022E000C110B0C151D0519F4EA01B8
:10048000F8821AC03281332341F00196C817D90788
:1004900099F4022E000C330B08C08C179D0761F4F1
:1004A000022E000C330B2F5F3F4F12968D919C91C3
:1004B00013972817390719F334966E177F0731F60B
:1004C000DF91CF911F910F91FF90DF90CF90089512
:1004D000AC014770552721E030E001C0220F4A955A
:1004E000EAF733E0969587953A95E1F782309105E2
:1004F00091F18330910509F459C0019709F080C04A
:1005000062307105B1F058F46130710509F078C0BE
:1005100084B12095822384B985B1282311C063302A
:10052000710581F06430710509F06AC085B1822BD4
:100530000DC084B1922F9095892384B985B1282B61
:1005400025B95CC085B1922F9095892385B984B176
:10055000282B24B953C062307105B1F058F46130D2
:10056000710509F04DC087B12095822387B988B104
:10057000282311C06330710581F06430710509F0E2
:100580003FC088B1822B0DC087B1922F90958923EF
:1005900087B988B1282B28B931C088B1922F90959E
:1005A000892388B987B1282B27B928C06230710503
:1005B000A1F050F46130710519F58AB120958223BC
:1005C0008AB98BB1282310C06330710579F064308B
:1005D0007105B1F48BB1822B0DC08AB1922F909529
:1005E00089238AB98BB1282B2BB908C08BB1922FE4
:1005F000909589238BB98AB1282B2AB981E0089577
:1006000080E00895AC014770552721E030E001C03B
:10061000220F4A95EAF733E0969587953A95E1F7E8
:100620008230910549F08330910551F0019759F4DA
:1006300085B1282B25B9089588B1282B28B90895AC
:100640008BB1282B2BB90895AC014770552721E0B9
:1006500030E001C0220F4A95EAF733E0969587957E
:100660003A95E1F78230910551F08330910561F0C0
:10067000019771F485B12095282325B9089588B193
:100680002095282328B908958BB1209528232BB9CC
:100690000895AC014770552721E030E001C0220FDA
:1006A0004A95EAF733E0969587953A95E1F78230D7
:1006B000910549F08330910551F0019759F485B1C6
:1006C000282725B9089588B1282728B908958BB11E
:1006D00028272BB90895AC014770552721E030E059
:1006E00001C0220F4A95EAF733E0969587953A952F
:1006F000E1F78230910539F08330910531F00197AF
:1007000041F483B103C086B101C089B1282381E0DF
:1007100009F480E0089561110C9402030C94240301
:10072000AC014770552721E030E001C0220F4A9507
:10073000EAF733E0969587953A95E1F7823091058F
:1007400061F08330910581F0019721F584B1822316
:1007500091E009F490E084B10DC087B1822391E06B
:1007600009F490E087B106C08AB1822391E009F4D0
:1007700090E08AB1282381E009F480E0992329F0F0
:1007800081110BC083E090E00895811109C081E0E0
:1007900090E0089580E090E0089584E090E008956E
:1007A00082E090E00895AC014770552721E030E0E9
:1007B00001C0220F4A95EAF733E0969587953A955E
:1007C000E1F78230910539F08330910531F00197DE
:1007D00041F485B103C088B101C08BB1282381E009
:1007E00009F480E00895E1E6F0E080E8808310827B
:1007F000A89584B7877F84BFE0E6F0E080818861B8
:100800008083108208951092800084E0809381009C
:100810001092850010928400089580918400909138
:1008200085000895AC0180918400909185009C0121
:10083000241B350B283E3340B0F7089520918400E7
:1008400030918500820F931F0C94120481110DC00A
:1008500080911402882329F09091150281E0892764
:1008600002C080E090E08170089580E008958111D9
:100870000BC080911402811103C08091150202C047
:1008800080E090E08170089580E00895811103C0B8
:1008900080911402089580E00895811105C090911F
:1008A000140281E08927089580E00895CF93DF93B3
:1008B000C4E1D2E0888189838FE190E00E946B03DC
:1008C0008883DF91CF91089561E070E08FE190E03F
:1008D0000C946802853098F4673088F421E030E0A9
:1008E00001C0220F6A95EAF7E82FF0E0E95EFD4FBC
:1008F000922F9095808189234111822B80830895C6
:10090000853080F4673070F421E030E001C0220FC0
:100910006A95EAF7E82FF0E0E95EFD4F8081282331
:1009200081E009F480E0089560911602E62FF0E07E
:10093000E95EFD4F80810E94D604809116028F5F90
:10094000853018F4809316020895109216020895C7
:10095000E7E1F2E01082118212821382148208957C
:100960000E94B4040C94A8040F931F93CF93DF93B9
:10097000C6EED1E064E070E0899199910E9468022E
:1009800081E0C43FD807B1F7CCEDD1E006EE11E02D
:1009900064E070E0899199910E9468020C171D072C
:1009A000B9F7DF91CF911F910F910895FF920F93A7
:1009B0001F93CF93DF93082FF62EE0911C02F0E0F7
:1009C000EE0FFF1FE452FE4F808191810E940203CF
:1009D000C6EED1E017E08881998100FF03C00E9434
:1009E000240302C00E9402030695115022961111A1
:1009F000F2CFEF2DF0E0EE0FFF1FE452FE4F8081AB
:100A000091810E942403F0921C02DF91CF911F91EB
:100A10000F91FF900895E82FF0E0EE0FFF1FE35EC7
:100A2000FD4F8081882321F0918181E0892702C0D8
:100A300080E090E081700895E82FF0E0EE0FFF1F56
:100A4000E35EFD4F8081811102C0818102C080E0A0
:100A500090E081700895E82FF0E0EE0FFF1FE35E55
:100A6000FD4F80810895E82FF0E0EE0FFF1FE35E59
:100A7000FD4F908181E089270895AF92BF92CF9278
:100A8000DF92EF92FF920F931F93CF93DF93CDE10D
:100A9000D2E084EFE82E81E0F82E96E0A92EBB2468
:100AA000B39488818983F701019111917F01C80175
:100AB0000E9490036C0164E070E0C8010E9468022B
:100AC00062E070E0C8010E9468028A2D8A95F1F701
:100AD000C8010E946B038B258883B601C8010E9460
:100AE00068022296F2E0C732DF07D9F6DF91CF9194
:100AF0001F910F91FF90EF90DF90CF90BF90AF903C
:100B000008950895009789F0FC012381621B67FD19
:100B100009C0062E000C770B248130E081E06217BB
:100B200073070CF080E08170089580E00895CF9302
:100B3000DF93FC01892B79F18181481760F592815F
:100B4000291748F59381A62FA91BA7FD24C00A2EBB
:100B5000000CBB0BC481D0E0AC17BD07E4F4622FDE
:100B60000E94F208480F858190E0BD010E94FB08B9
:100B70000696242F269526952695E80FF91FE20F55
:100B8000F11D808190E0477002C0959587954A9548
:100B9000E2F7817001C080E0DF91CF910895CF939B
:100BA000DF93EC010E9403049E0140E050E062E10B
:100BB0007AE780E090E00E94340930932A02209383
:100BC0002902DF91CF910895809127029091280208
:100BD0000E9412042091270230912802809129025C
:100BE00090912A02820F931F9093280280932702EC
:100BF0000895182F092FF62E0E9403040E940D0459
:100C0000C12FD02F8E819F810E941204E881F9812B
:100C10008A819B8109952E813F818C819D81820FE4
:100C2000931F9F838E830E940D04BC01E12FF02F40
:100C30004FEF5FEF90E09F1529F326813781DB01AD
:100C4000A21BB30B9D012F3FBFE73B0710F4EF0141
:100C5000D9CF3195219531092417350710F4A90111
:100C6000EF019F5F3896E7CF692F0C94800441E035
:100C7000611101C040E0692F0C946A040C9437069E
:100C80005F926F927F928F929F92AF92BF92CF921C
:100C9000DF92EF92FF920F931F93CF93DF93562E25
:100CA000872E942E5C01E62EF72EC62F660FDD0BE5
:100CB000C81BD10987FDD395072F770F110B091B8F
:100CC000110997FD1395D7FF03C077247A9402C0CA
:100CD0007724739417FF03C066246A9402C06624C5
:100CE0006394D7FF03C0D195C195D10917FF03C005
:100CF000119501951109C017D107A4F06E01D59483
:100D0000C794F92EA51411F1692D8A2D9F2D0E94EB
:100D10003706C01AD10AD7FE03C0CC0EDD1EF60C72
:100D2000A70CF0CF6801D594C794E82EB81471F0E1
:100D3000692D8E2D9B2D0E943706CC1ADD0AD7FE19
:100D400003C0C00ED11EE70CB60CF0CF692DC70151
:100D5000DF91CF911F910F91FF90EF90DF90CF9097
:100D6000BF90AF909F908F907F906F905F900C940A
:100D70003706FF920F931F93CF93DF93D82FF92E4F
:100D8000162FC72F042F792F0E944006402F6D2F5A
:100D90007C2F8D2F9F2D0E944006402F612F7C2F8E
:100DA000812F9F2D0E944006402F612F7C2F8D2F79
:100DB0009C2F0E944006DF91CF911F910F91FF90D1
:100DC00008950E94A804EBE2F1E0118A14860895C8
:100DD000DF92EF92FF920F931F93CF93DF93D82E62
:100DE0007B01162F0F2D80912D0190912E01D0E0C7
:100DF000019799F50F2D0D1BE0913301F09134010E
:100E00008181C0E0D817B8F480913301909134010A
:100E1000FC012281C21768F42C2F4D2F6D2D0E94EA
:100E20009705682F8E2D8C0F902F0E943706CF5F6D
:100E3000EBCFDF5FDFCFE0913301F09134018281AE
:100E4000C81740F460E08E2D8C0F902F0E9437065B
:100E5000CF5FF1CF015030C0DF5F1E2D1D0FE0913D
:100E60003301F09134018181C0E0D817A8F480915A
:100E7000330190913401FC012281C21768F72C2FB5
:100E80004D2F6D2D0E949705682F812F9F2D9C0F50
:100E90000E943706CF5FEBCFE0913301F091340130
:100EA0008281C81740F460E0812F9F2D9C0F0E9423
:100EB0003706CF5FF1CF1F5F812F902FDF91CF914A
:100EC0001F910F91FF90EF90DF9008950F931F9364
:100ED000CF938C01C0E0F80181918F01882341F00C
:100EE0000E94E806BC01CF5F853014F477FFF3CF92
:100EF0008C2FCF911F910F9108950F931F93CF9334
:100F0000DF93109237014093380110923B0100911A
:100F10003301109134010115110509F449C09B01F9
:100F2000EC01F8018181609131017091320190E012
:100F30000E94FB08BC0180913501909136010E940E
:100F40000C09CB016AE070E00E94FB0890933A0123
:100F5000809339013093300120932F0140E250E01B
:100F6000BE018CE391E00E94D30980912B01909106
:100F70002C010197E9F4FE0101900020E9F7319777
:100F8000BF016C1B7D0BF80181818F5F0E94F2080D
:100F9000815020912D0130912E012130310511F029
:100FA00095E001C097E0981718F48EEF80933B010D
:100FB000DF91CF911F910F91089520912D013091D4
:100FC0002E012130310511F070E001C076E04FEFC5
:100FD00060E00E947D07089590E090933201809335
:100FE0003101089590932C0180932B0108959093E3
:100FF0002E0180932D010895909334018093330145
:10100000089580912B0290912C02019690932C02CE
:1010100080932B022091390130913A018217930776
:1010200008F469C010922C0210922B02E091370153
:10103000F0E0E55DFE4F818981110AC080913801A1
:10104000823008F458C081508093380110923701E3
:101050008091370190E0FC01E55DFE4F218922235C
:1010600009F449C040912B0150912C0120913B0182
:101070004115510521F04130510599F024C021114D
:1010800022C060912F0170913001845C9E4F0E94BC
:10109000660790E0019790913701890F809337019F
:1010A00012C060912F017091300140912D0150913B
:1010B0002E014130510511F4720F01C0621B845C96
:1010C0009E4F0E94660780913B018F5F80933B019A
:1010D000082E000C990BE0913301F091340121812D
:1010E00030E0281739073CF410923B01809137011A
:1010F0008F5F809337010C949404CF93DF93CBE2FE
:10110000D1E09B878A870E94B00484E190E09F83AE
:101110008E83DF91CF910C94E106CF93DF93CDB70F
:10112000DEB7A0970FB6F894DEBF0FBECDBF0E940A
:10113000F3030E94810588EE93E00E947D0880E61B
:1011400091E00E94FC078EE10E94EC0781E090E0B4
:101150000E94F20781E090E00E94F70741E064E01E
:1011600076E084E090E00E944006CE01019620E205
:10117000FC0111922A95E9F729E530E03A832983A9
:1011800020E031E03C832B834FE150E05E834D83D0
:1011900062ED70E07A8769873C872B876CE27AE0A2
:1011A0007E876D876DEA70E07A8B698B3C8B2B8B29
:1011B00062E47FE07E8B6D8B6FE870E07A8F698FE1
:1011C0003C8F2B8F5E8F4D8F64E00E94F90580E08D
:1011D00090E0A0960FB6F894DEBF0FBECDBFDF91B2
:1011E000CF910895002480FD060E660F11F08695BC
:1011F000D1F7802D08950024552704C0080E591FEB
:10120000880F991F009729F076956795B8F37105B7
:10121000B9F7802D952F0895AA1BBB1B51E107C07C
:10122000AA1FBB1FA617B70710F0A61BB70B881F76
:10123000991F5A95A9F780959095BC01CD01089505
:1012400097FB072E16F4009407D077FD09D00E9473
:101250000C0907FC05D03EF4909581959F4F0895A9
:10126000709561957F4F0895052E97FB1EF40094AD
:101270000E944B0957FD07D00E94530907FC03D079
:101280004EF40C944B0950954095309521953F4F65
:101290004F4F5F4F089590958095709561957F4F62
:1012A0008F4F9F4F0895A1E21A2EAA1BBB1BFD0171
:1012B0000DC0AA1FBB1FEE1FFF1FA217B307E40735
:1012C000F50720F0A21BB30BE40BF50B661F771F8D
:1012D000881F991F1A9469F760957095809590956D
:1012E0009B01AC01BD01CF0108958F929F92AF92F7
:1012F000BF92CF92DF92EF92FF92CF93DF93EC01F8
:10130000688179818A819B816115710581059105CB
:1013100021F464E279ED8BE597E02DE133EF41E0D4
:1013200050E00E94340949015A0127EA31E440E0C3
:1013300050E00E94E2096B017C012CEE34EF4FEF8C
:101340005FEFC501B4010E94E209DC01CB018C0D05
:101350009D1DAE1DBF1DB7FF03C00197A109B04879
:1013600088839983AA83BB839F77DF91CF91FF9076
:10137000EF90DF90CF90BF90AF909F908F900895A7
:101380000E94750908958CE591E00E947509089501
:10139000A0E0B0E080935C0190935D01A0935E01BA
:1013A000B0935F010895FB01DC014150504048F0CB
:1013B00001900D920020C9F701C01D92415050408C
:1013C000E0F70895EE27FF27AA27BB2708C0A20F42
:1013D000B31FE41FF51F220F331F441F551F96959F
:1013E00087957795679598F37040A9F7009799F7D7
:0A13F000BD01CF010895F894FFCF6E
:1013FA000300060000000000000101010000FFFFD9
:10140A00FF080000000000000000000000000000CB
:10141A00000000000000FB000001000000000000C6
:10142A00001400000000000000000000000000009E
:10143A0000000000000000000000000000000000A2
:10144A000000000000000000000000000100000091
:10145A00010305203B0200009220EB737D5FDE3D15
:10146A00A552EA7A14004A222229BA2ED00500147B
:10147A00C0010020A4126A2B9A74A372A338ED4902
:10148A008F38CE2AA712AA2AAE491004101454443F
:10149A00380E11152A250000EA5BEB3A4F726B3BB6
:1014AA00CF73CF134F7AED5B9774247B5D564972E5
:1014BA00FD5B6F5B6F7BEF136F7FEF57CE3897241F
:1014CA006D7B6D2BED5FAD5AAD24A77216000F0030
:1014DA001400170015000E000D000C000B000A0086
:1014EA00090008001700160015000F001400204715
:1014FA00414D45204F564552202053434F52453ABD
:04150A00313020005C
:00000001FF
