:100000000C943A000C9457000C9457000C94570031
:100010000C9457000C9457000C9457000C94570004
:100020000C9457000C9457000C9457000C945700F4
:100030000C9457000C9457000C9457000C945700E4
:100040000C9457000C9457000C9457000C945700D4
:100050000C9457000C9457000C9457000C945700C4
:100060000C9457000C9457000C9457000C945700B4
:100070000C94570011241FBECFEFD4E0DEBFCDBFDC
:1000800011E0A0E0B1E0E2E7F2E102C005900D92DC
:10009000AE37B107D9F721E0AEE7B1E001C01D925C
:1000A000A73AB207E1F70E94E0070C9437090C94D5
:1000B0000000CF93DF93EC010E94340641E064E03E
:1000C00076E084E090E00E949305CE010E94F70064
:1000D000CE0145960E949701DF91CF910C94540771
:1000E000AC014A5D5F4FBC016B5D7F4F45960C9440
:1000F000FE000F931F93FC012081318135832483FF
:1001000022813381378326838C010D5E1F4F9C0132
:100110002F5E3F4FAC01475F5F4FBC01685F7F4F71
:100120000E9495001F910F910895AF92BF92CF92B8
:10013000DF92EF92FF920F931F93CF93DF93EC0127
:100140007B015A0169010E94900480E00E947E04B4
:10015000882321F08A819B81019708C082E00E9458
:100160007E04882341F08A819B8101968730910526
:1001700010F49B838A830E94A903F7018081811177
:100180000BC00E947903882319F081E0F701808376
:10019000F7018081882301F1F80180819181F501C7
:1001A000E80FF91F208188819981821B910927FD21
:1001B000939599838883F801808191810196918339
:1001C0008083F601208131818217930729F4F80199
:1001D00011821082F7011082DF91CF911F910F9150
:1001E000FF90EF90DF90CF90BF90AF900895FC010B
:1001F00061E0808192810E948A050895CF92DF920A
:10020000EF92FF920F931F93CF93DF93EC018B013B
:100210006A01DA018C91833008F449C0FB018081C6
:10022000843008F042C0E82EF12CEE0CFF1CEE0CDE
:10023000FF1CEC0EFD1E0E94FF0862E070E00E94B1
:100240005C089C0191E0232B09F490E0D701129601
:100250009C93D801EC91F0E0EE0FFF1FEE0FFF1F13
:10026000EC0FFD1F8FEF8183EC90F12CEE0CFF1C47
:10027000EE0CFF1CEC0EFD1E0E94FF0863E070E018
:100280000E945C088F5FF7018083D801EC91F0E059
:10029000EE0FFF1FEE0FFF1FEC0FFD1F81E08383AA
:1002A0008C918F5F8C93F601108280E004C08F5F89
:1002B000DA018C93FACFE82FF0E0EE0FFF1FEE0F7C
:1002C000FF1FEC0FFD1F9381992319F091819F5F10
:1002D000918391819730FCF013824C815D816E8116
:1002E0007F81488359836A837B83488559856A85E2
:1002F0007B854C835D836E837F834C855D856E85B6
:100300007F85488759876A877B871F86F801908198
:100310009150908381508F5F843068F2DF91CF914C
:100320001F910F91FF90EF90DF90CF9008950F9362
:100330001F93CF93DF93EC018C01005F1F4F8B81E4
:10034000882381F0888199812A81222329F06FEF07
:10035000680F41E0792F04C071E0790F41E0682F08
:100360000E9493052496C017D10749F7DF91CF91DA
:100370001F910F910895AC014770552721E030E09F
:1003800001C0220F4A95EAF733E0969587953A9592
:10039000E1F78230910591F18330910509F459C05C
:1003A000019709F080C062307105B1F058F46130F6
:1003B000710509F078C084B12095822384B985B194
:1003C000282311C06330710581F06430710509F094
:1003D0006AC085B1822B0DC084B1922F909589237C
:1003E00084B985B1282B25B95CC085B1922F909531
:1003F000892385B984B1282B24B953C06230710593
:10040000B1F058F46130710509F04DC087B1209505
:10041000822387B988B1282311C06330710581F028
:100420006430710509F03FC088B1822B0DC087B1DF
:10043000922F9095892387B988B1282B28B931C08C
:1004400088B1922F9095892388B987B1282B27B935
:1004500028C062307105A1F050F46130710519F5C2
:100460008AB1209582238AB98BB1282310C06330CA
:10047000710579F064307105B1F48BB1822B0DC038
:100480008AB1922F909589238AB98BB1282B2BB9E9
:1004900008C08BB1922F909589238BB98AB1282BF4
:1004A0002AB981E0089580E00895AC01477055278E
:1004B00021E030E001C0220F4A95EAF733E096953B
:1004C00087953A95E1F78230910549F0833091059F
:1004D00051F0019759F485B1282B25B9089588B1B9
:1004E000282B28B908958BB1282B2BB90895AC017E
:1004F0004770552721E030E001C0220F4A95EAF706
:1005000033E0969587953A95E1F78230910551F061
:100510008330910561F0019771F485B1209528230E
:1005200025B9089588B12095282328B908958BB15D
:10053000209528232BB90895AC014770552721E059
:1005400030E001C0220F4A95EAF733E0969587958F
:100550003A95E1F78230910549F08330910551F0E9
:10056000019759F485B1282725B9089588B128271E
:1005700028B908958BB128272BB90895AC0147708D
:10058000552721E030E001C0220F4A95EAF733E019
:10059000969587953A95E1F78230910539F0833049
:1005A000910531F0019741F483B103C086B101C0D8
:1005B00089B1282381E009F480E0089561110C9449
:1005C00055020C947702AC014770552721E030E0CA
:1005D00001C0220F4A95EAF733E0969587953A9540
:1005E000E1F78230910561F08330910581F0019748
:1005F00021F584B1822391E009F490E084B10DC02B
:1006000087B1822391E009F490E087B106C08AB1F6
:10061000822391E009F490E08AB1282381E009F473
:1006200080E0992329F081110BC083E090E00895C8
:10063000811109C081E090E0089580E090E0089584
:1006400084E090E0089582E090E00895AC01477066
:10065000552721E030E001C0220F4A95EAF733E048
:10066000969587953A95E1F78230910539F0833078
:10067000910531F0019741F485B103C088B101C003
:100680008BB1282381E009F480E00895E1E6F0E0F1
:1006900080E880831082A89584B7877F84BFE0E6D6
:1006A000F0E080818861808310820895109280003C
:1006B00084E0809381001092850010928400089558
:1006C00080918400909185000895AC018091840010
:1006D000909185009C01241B350B283E3340B0F7D8
:1006E00008952091840030918500820F931F0C940F
:1006F000650381110DC080917E01882329F09091BE
:100700007F0181E0892702C080E090E08170089538
:1007100080E0089581110BC080917E01811103C09A
:1007200080917F0102C080E090E08170089580E0B8
:100730000895811103C080917E01089580E008959D
:10074000811105C090917E0181E08927089580E0A4
:100750000895CF93DF93CEE7D1E0888189838FE13D
:1007600090E00E94BE028883DF91CF91089561E0FE
:1007700070E08FE190E00C94BB01853098F4673015
:1007800088F421E030E001C0220F6A95EAF7E82FF3
:10079000F0E0EF57FE4F922F909580818923411111
:1007A000822B80830895853080F4673070F421E0D7
:1007B00030E001C0220F6A95EAF7E82FF0E0EF572A
:1007C000FE4F8081282381E009F480E00895609144
:1007D0008001E62FF0E0EF57FE4F80810E94290450
:1007E000809180018F5F853018F480938001089597
:1007F000109280010895E1E8F1E0108211821282E6
:100800001382148208950E9407040C94FB030F9333
:100810001F93CF93DF93C6E6D1E064E070E0899147
:1008200099910E94BB0181E0C437D807B1F7CCE5AC
:10083000D1E006E611E064E070E0899199910E94B0
:10084000BB010C171D07B9F7DF91CF911F910F91D5
:100850000895FF920F931F93CF93DF93082FF62EE7
:10086000E0918601F0E0EE0FFF1FE45AFE4F808119
:1008700091810E945502C6E6D1E017E088819981F6
:1008800000FF03C00E94770202C00E945502069535
:10089000115022961111F2CFEF2DF0E0EE0FFF1F55
:1008A000E45AFE4F808191810E947702F092860186
:1008B000DF91CF911F910F91FF900895E82FF0E005
:1008C000EE0FFF1FE957FE4F8081882321F09181B1
:1008D00081E0892702C080E090E081700895E82FD0
:1008E000F0E0EE0FFF1FE957FE4F8081811102C03B
:1008F000818102C080E090E081700895E82FF0E0EF
:10090000EE0FFF1FE957FE4F80810895E82FF0E0BA
:10091000EE0FFF1FE957FE4F908181E08927089570
:10092000AF92BF92CF92DF92EF92FF920F931F93FD
:10093000CF93DF93C7E8D1E084E7E82E81E0F82E7B
:1009400096E0A92EBB24B39488818983F701019195
:1009500011917F01C8010E94E3026C0164E070E024
:10096000C8010E94BB0162E070E0C8010E94BB01A7
:100970008A2D8A95F1F7C8010E94BE028B258883D3
:10098000B601C8010E94BB012296F1E0C139DF0720
:10099000D9F6DF91CF911F910F91FF90EF90DF90EB
:1009A000CF90BF90AF9008950895009789F0FC0113
:1009B0002381621B67FD09C0062E000C770B248182
:1009C00030E081E0621773070CF080E081700895D9
:1009D00080E00895CF93DF93FC01892B79F1818129
:1009E000481760F59281291748F59381A62FA91B16
:1009F000A7FD24C00A2E000CBB0BC481D0E0AC17AD
:100A0000BD07E4F4622F0E942E08480F858190E014
:100A1000BD010E9437080696242F26952695269517
:100A2000E80FF91FE20FF11D808190E0477002C0CE
:100A3000959587954A95E2F7817001C080E0DF9136
:100A4000CF910895CF93DF93EC010E9456039E014E
:100A500040E050E062E17AE780E090E00E947008B8
:100A60003093940120939301DF91CF910895809169
:100A70009101909192010E94650320919101309122
:100A800092018091930190919401820F931F909312
:100A90009201809391010895182F092FF62E0E943C
:100AA00056030E946003C12FD02F8E819F810E9428
:100AB0006503E881F9818A819B8109952E813F81B7
:100AC0008C819D81820F931F9F838E830E94600380
:100AD000BC01E12FF02F4FEF5FEF90E09F1529F35E
:100AE00026813781DB01A21BB30B9D012F3FBFE79E
:100AF0003B0710F4EF01D9CF319521953109241727
:100B0000350710F4A901EF019F5F3896E7CF692FF1
:100B10000C94D30341E0611101C040E0692F0C94B3
:100B2000BD030C948A055F926F927F928F929F9281
:100B3000AF92BF92CF92DF92EF92FF920F931F93EB
:100B4000CF93DF93562E872E942E5C01E62EF72E40
:100B5000C62F660FDD0BC81BD10987FDD395072F64
:100B6000770F110B091B110997FD1395D7FF03C0D0
:100B700077247A9402C07724739417FF03C0662405
:100B80006A9402C066246394D7FF03C0D195C195CF
:100B9000D10917FF03C0119501951109C017D1079D
:100BA000A4F06E01D594C794F92EA51411F1692D06
:100BB0008A2D9F2D0E948A05C01AD10AD7FE03C034
:100BC000CC0EDD1EF60CA70CF0CF6801D594C794AF
:100BD000E82EB81471F0692D8E2D9B2D0E948A0588
:100BE000CC1ADD0AD7FE03C0C00ED11EE70CB60C2E
:100BF000F0CF692DC701DF91CF911F910F91FF9029
:100C0000EF90DF90CF90BF90AF909F908F907F90AC
:100C10006F905F900C948A05FF920F931F93CF9370
:100C2000DF93D82FF92E162FC72F042F792F0E946C
:100C30009305402F6D2F7C2F8D2F9F2D0E949305A4
:100C4000402F612F7C2F812F9F2D0E949305402FD5
:100C5000612F7C2F8D2F9C2F0E949305DF91CF91C8
:100C60001F910F91FF9008950E94FB03E7E2F1E0CE
:100C7000118A14860895DF92EF92FF920F931F93CB
:100C8000CF93DF93D82E7B01162F0F2D8091290152
:100C900090912A01D0E0019799F50F2D0D1BE0915D
:100CA0002F01F09130018181C0E0D817B8F4809114
:100CB0002F0190913001FC012281C21768F42C2F82
:100CC0004D2F6D2D0E94EA04682F8E2D8C0F902FD2
:100CD0000E948A05CF5FEBCFDF5FDFCFE0912F016E
:100CE000F09130018281C81740F460E08E2D8C0FA6
:100CF000902F0E948A05CF5FF1CF015030C0DF5F97
:100D00001E2D1D0FE0912F01F09130018181C0E077
:100D1000D817A8F480912F0190913001FC01228115
:100D2000C21768F72C2F4D2F6D2D0E94EA04682FF3
:100D3000812F9F2D9C0F0E948A05CF5FEBCFE09102
:100D40002F01F09130018281C81740F460E0812FBB
:100D50009F2D9C0F0E948A05CF5FF1CF1F5F812FCF
:100D6000902FDF91CF911F910F91FF90EF90DF9027
:100D700008950F931F93CF938C01C0E0F8018191E8
:100D80008F01882341F00E943B06BC01CF5F853074
:100D900014F477FFF3CF8C2FCF911F910F9108950B
:100DA0000F931F93CF93DF9310923301409334013D
:100DB0001092370100912F0110913001011511059A
:100DC00009F449C09B01EC01F801818160912D017A
:100DD00070912E0190E00E943708BC018091310192
:100DE000909132010E944808CB016AE070E00E94B5
:100DF0003708909336018093350130932C0120936E
:100E00002B0140E250E0BE0188E391E00E940F090F
:100E100080912701909128010197E9F4FE0101904A
:100E20000020E9F73197BF016C1B7D0BF801818130
:100E30008F5F0E942E0881502091290130912A0154
:100E40002130310511F095E001C097E0981718F4B2
:100E50008EEF80933701DF91CF911F910F9108950D
:100E60002091290130912A012130310511F070E0E3
:100E700001C076E04FEF60E00E94D006089590E058
:100E800090932E0180932D010895909328018093D3
:100E90002701089590932A01809329010895909342
:100EA000300180932F0108958091950190919601D2
:100EB0000196909396018093950120913501309190
:100EC00036018217930708F469C0109296011092B8
:100ED0009501E0913301F0E0E95DFE4F81898111D8
:100EE0000AC080913401823008F458C08150809348
:100EF0003401109233018091330190E0FC01E95DEF
:100F0000FE4F2189222309F449C0409127015091C5
:100F10002801209137014115510521F0413051053B
:100F200099F024C0211122C060912B0170912C01F5
:100F3000885C9E4F0E94B90690E001979091330122
:100F4000890F8093330112C060912B0170912C01A5
:100F50004091290150912A014130510511F4720F3D
:100F600001C0621B885C9E4F0E94B90680913701C8
:100F70008F5F80933701082E000C990BE0912F01B1
:100F8000F0913001218130E0281739073CF41092AC
:100F90003701809133018F5F809333010C94E70315
:100FA000CF93DF93C7E2D1E09B878A870E94030437
:100FB00084E190E09F838E83DF91CF910C9434067F
:100FC000CF93DF93CDB7DEB768970FB6F894DEBF47
:100FD0000FBECDBF0E9446030E94D40488EE93E06A
:100FE0000E94D00741E064E076E084E090E00E9457
:100FF0009305CE01019628E1FC0111922A95E9F7AB
:1010000029E730E03A83298320E031E03C832B83D9
:101010004CE25AE05E834D8340E750E05A874987AF
:101020003C872B8748E554E15E874D8749E550E0D2
:101030005A8B498B3C8B2B8B2FE130E03E8B2D8BD9
:1010400063E00E944C0580E090E068960FB6F8944B
:10105000DEBF0FBECDBFDF91CF910895002480FD8C
:10106000060E660F11F08695D1F7802D08950024A5
:10107000552704C0080E591F880F991F009729F0A3
:1010800076956795B8F37105B9F7802D952F08957A
:10109000AA1BBB1B51E107C0AA1FBB1FA617B7079E
:1010A00010F0A61BB70B881F991F5A95A9F78095BA
:1010B0009095BC01CD01089597FB072E16F400947E
:1010C00007D077FD09D00E94480807FC05D03EF400
:1010D000909581959F4F0895709561957F4F0895E4
:1010E000052E97FB1EF400940E94870857FD07D039
:1010F0000E948F0807FC03D04EF40C94870850958B
:101100004095309521953F4F4F4F5F4F08959095F3
:101110008095709561957F4F8F4F9F4F0895A1E205
:101120001A2EAA1BBB1BFD010DC0AA1FBB1FEE1F61
:10113000FF1FA217B307E407F50720F0A21BB30BAC
:10114000E40BF50B661F771F881F991F1A9469F728
:1011500060957095809590959B01AC01BD01CF0184
:1011600008958F929F92AF92BF92CF92DF92EF92AB
:10117000FF92CF93DF93EC01688179818A819B8113
:10118000611571058105910521F464E279ED8BE526
:1011900097E02DE133EF41E050E00E9470084901F3
:1011A0005A0127EA31E440E050E00E941E096B0139
:1011B0007C012CEE34EF4FEF5FEFC501B4010E94CC
:1011C0001E09DC01CB018C0D9D1DAE1DBF1DB7FF9F
:1011D00003C00197A109B04888839983AA83BB8380
:1011E0009F77DF91CF91FF90EF90DF90CF90BF90EE
:1011F000AF909F908F9008950E94B108089588E560
:1012000091E00E94B1080895A0E0B0E080935801F9
:1012100090935901A0935A01B0935B010895FB018B
:10122000DC014150504048F001900D920020C9F778
:1012300001C01D9241505040E0F70895EE27FF276E
:10124000AA27BB2708C0A20FB31FE41FF51F220F58
:10125000331F441F551F969587957795679598F38B
:101260007040A9F7009799F7BD01CF010895F89450
:02127000FFCFAE
:101272000300060000000000000101010000FFFF62
:10128200FF08000000000000000000000000000055
:101292000000000000000000000000000014000038
:1012A200000000000000000000000000000000003C
:1012B200000000000000000000000000000000002C
:1012C20000000000000000000100000016000F00F6
:1012D2001400170015000E000D000C000B000A0090
:0E12E200090008001700160015000F00140088
:00000001FF
