:100000000C943A000C9457000C9457000C94570031
:100010000C9457000C9457000C9457000C94570004
:100020000C9457000C9457000C9457000C945700F4
:100030000C9457000C9457000C9457000C945700E4
:100040000C9457000C9457000C9457000C945700D4
:100050000C9457000C9457000C9457000C945700C4
:100060000C9457000C9457000C9457000C945700B4
:100070000C94570011241FBECFEFD4E0DEBFCDBFDC
:1000800011E0A0E0B1E0E0EBFFE002C005900D92CE
:10009000AA36B107D9F721E0AAE6B1E001C01D9266
:1000A000A338B207E1F70E9414070C94D6070C940A
:1000B0000000BC016C5F7F4F0E94DE000C9488063C
:1000C0000F931F93FC01208131813583248322818A
:1000D0003381378326838C010C5E1F4F9C012E5E7B
:1000E0003F4FAC01475F5F4FBC01685F7F4F0E948D
:1000F0007C001F910F910895AF92BF92CF92DF9233
:10010000EF92FF920F931F93CF93DF93EC017B014C
:100110005A0169010E94C40380E00E94B20388234F
:1001200021F08A819B81019708C082E00E94B2037E
:10013000882341F08A819B8101968730910510F4D4
:100140009B838A830E94DD02F701808181110BC0AD
:100150000E94AD02882319F081E0F7018083F70146
:100160008081882301F1F80180819181F501E80FF8
:10017000F91F208188819981821B910927FD939520
:1001800099838883F801808191810196918380838E
:10019000F601208131818217930729F4F801118239
:1001A0001082F7011082DF91CF911F910F91FF9084
:1001B000EF90DF90CF90BF90AF900895CF93DF93F3
:1001C000EC01FB0160E0808192810E94BE0461E04D
:1001D00088819A810E94BE04DF91CF910895AC017D
:1001E0004770552721E030E001C0220F4A95EAF719
:1001F00033E0969587953A95E1F78230910591F134
:100200008330910509F459C0019709F080C062302C
:100210007105B1F058F46130710509F078C084B10E
:100220002095822384B985B1282311C063307105DC
:1002300081F06430710509F06AC085B1822B0DC070
:1002400084B1922F9095892384B985B1282B25B943
:100250005CC085B1922F9095892385B984B1282BF4
:1002600024B953C062307105B1F058F461307105A2
:1002700009F04DC087B12095822387B988B1282322
:1002800011C06330710581F06430710509F03FC021
:1002900088B1822B0DC087B1922F9095892387B9A1
:1002A00088B1282B28B931C088B1922F9095892325
:1002B00088B987B1282B27B928C062307105A1F011
:1002C00050F46130710519F58AB1209582238AB9FD
:1002D0008BB1282310C06330710579F0643071054B
:1002E000B1F48BB1822B0DC08AB1922F90958923E6
:1002F0008AB98BB1282B2BB908C08BB1922F90955E
:1003000089238BB98AB1282B2AB981E0089580E02E
:100310000895AC014770552721E030E001C0220F5D
:100320004A95EAF733E0969587953A95E1F782305A
:10033000910549F08330910551F0019759F485B149
:10034000282B25B9089588B1282B28B908958BB199
:10035000282B2BB90895AC014770552721E030E0D8
:1003600001C0220F4A95EAF733E0969587953A95B2
:10037000E1F78230910551F08330910561F00197EA
:1003800071F485B12095282325B9089588B1209569
:10039000282328B908958BB1209528232BB90895D7
:1003A000AC014770552721E030E001C0220F4A958B
:1003B000EAF733E0969587953A95E1F78230910513
:1003C00049F08330910551F0019759F485B1282700
:1003D00025B9089588B1282728B908958BB1282711
:1003E0002BB90895AC014770552721E030E001C0DA
:1003F000220F4A95EAF733E0969587953A95E1F70B
:100400008230910539F08330910531F0019741F444
:1004100083B103C086B101C089B1282381E009F40A
:1004200080E0089561110C9489010C94AB01AC013A
:100430004770552721E030E001C0220F4A95EAF7C6
:1004400033E0969587953A95E1F78230910561F012
:100450008330910581F0019721F584B1822391E0E9
:1004600009F490E084B10DC087B1822391E009F4D2
:1004700090E087B106C08AB1822391E009F490E050
:100480008AB1282381E009F480E0992329F08111C1
:100490000BC083E090E00895811109C081E090E0F5
:1004A000089580E090E0089584E090E0089582E06F
:1004B00090E00895AC014770552721E030E001C07D
:1004C000220F4A95EAF733E0969587953A95E1F73A
:1004D0008230910539F08330910531F0019741F474
:1004E00085B103C088B101C08BB1282381E009F434
:1004F00080E00895E1E6F0E080E880831082A8952E
:1005000084B7877F84BFE0E6F0E0808188618083E4
:10051000108208951092800084E0809381001092F0
:100520008500109284000895809184009091850048
:100530000895AC0180918400909185009C01241B5A
:10054000350B283E3340B0F7089520918400309158
:100550008500820F931F0C94990281110DC0809128
:100560006A01882329F090916B0181E0892702C0FC
:1005700080E090E08170089580E0089581110BC0C3
:1005800080916A01811103C080916B0102C080E0FB
:1005900090E08170089580E00895811103C08091FA
:1005A0006A01089580E00895811105C090916A0163
:1005B00081E08927089580E00895CF93DF93CAE60C
:1005C000D1E0888189838FE190E00E94F2018883E5
:1005D000DF91CF91089561E070E08FE190E00C949D
:1005E000EF00853098F4673088F421E030E001C0F6
:1005F000220F6A95EAF7E82FF0E0E359FE4F922FB9
:100600009095808189234111822B808308958530C4
:1006100080F4673070F421E030E001C0220F6A9569
:10062000EAF7E82FF0E0E359FE4F8081282381E0CC
:1006300009F480E0089560916C01E62FF0E0E35941
:10064000FE4F80810E945D0380916C018F5F853039
:1006500018F480936C01089510926C010895EDE6F2
:10066000F1E01082118212821382148208950E9496
:100670003B030C942F030F931F93CF93DF93C1E59C
:10068000D1E064E070E0899199910E94EF0081E0EF
:10069000CF35D807B1F7C7E4D1E001E511E064E058
:1006A00070E0899199910E94EF000C171D07B9F72E
:1006B000DF91CF911F910F910895FF920F931F9398
:1006C000CF93DF93082FF62EE0917201F0E0EE0F4A
:1006D000FF1FE95BFE4F808191810E948901C1E586
:1006E000D1E017E08881998100FF03C00E94AB012F
:1006F00002C00E9489010695115022961111F2CF75
:10070000EF2DF0E0EE0FFF1FE95BFE4F808191813E
:100710000E94AB01F0927201DF91CF911F910F9176
:10072000FF900895E82FF0E0EE0FFF1FED58FE4F09
:100730008081882321F0918181E0892702C080E0B7
:1007400090E081700895E82FF0E0EE0FFF1FED5864
:10075000FE4F8081811102C0818102C080E090E063
:1007600081700895E82FF0E0EE0FFF1FED58FE4F67
:1007700080810895E82FF0E0EE0FFF1FED58FE4F47
:10078000908181E089270895AF92BF92CF92DF9246
:10079000EF92FF920F931F93CF93DF93C3E7D1E0C4
:1007A0008FE5E82E81E0F82E96E0A92EBB24B394C5
:1007B00088818983F701019111917F01C8010E940D
:1007C00017026C0164E070E0C8010E94EF0062E073
:1007D00070E0C8010E94EF008A2D8A95F1F7C801E8
:1007E0000E94F2018B258883B601C8010E94EF00A8
:1007F0002296F1E0CD37DF07D9F6DF91CF911F9137
:100800000F91FF90EF90DF90CF90BF90AF90089541
:100810000895009789F0FC012381621B67FD09C0E0
:10082000062E000C770B248130E081E062177307FD
:100830000CF080E08170089580E00895CF93DF93FD
:10084000FC01892B79F18181481760F59281291784
:1008500048F59381A62FA91BA7FD24C00A2E000CE2
:10086000BB0BC481D0E0AC17BD07E4F4622F0E943B
:100870005807480F858190E0BD010E9461070696E8
:10088000242F269526952695E80FF91FE20FF11DD6
:10089000808190E0477002C0959587954A95E2F770
:1008A000817001C080E0DF91CF910895CF93DF93F5
:1008B000EC010E948A029E0140E050E062E17AE78A
:1008C00080E090E00E9486073093800120937F01B2
:1008D000DF91CF91089580917D0190917E010E94DA
:1008E000990220917D0130917E0180917F0190914C
:1008F0008001820F931F90937E0180937D01089564
:10090000182F092FF62E0E948A020E949402C12FEE
:10091000D02F8E819F810E949902E881F9818A817E
:100920009B8109952E813F818C819D81820F931F30
:100930009F838E830E949402BC01E12FF02F4FEF22
:100940005FEF90E09F1529F326813781DB01A21B21
:10095000B30B9D012F3FBFE73B0710F4EF01D9CF49
:100960003195219531092417350710F4A901EF01BC
:100970009F5F3896E7CF692F0C94070341E0611120
:1009800001C040E0692F0C94F1020C94BE045F9208
:100990006F927F928F929F92AF92BF92CF92DF928F
:1009A000EF92FF920F931F93CF93DF93562E872ED4
:1009B000942E5C01E62EF72EC62F660FDD0BC81BAA
:1009C000D10987FDD395072F770F110B091B11094B
:1009D00097FD1395D7FF03C077247A9402C077243C
:1009E000739417FF03C066246A9402C0662463945C
:1009F000D7FF03C0D195C195D10917FF03C0119549
:100A000001951109C017D107A4F06E01D594C794C0
:100A1000F92EA51411F1692D8A2D9F2D0E94BE0477
:100A2000C01AD10AD7FE03C0CC0EDD1EF60CA70CEF
:100A3000F0CF6801D594C794E82EB81471F0692DF1
:100A40008E2D9B2D0E94BE04CC1ADD0AD7FE03C05A
:100A5000C00ED11EE70CB60CF0CF692DC701DF9197
:100A6000CF911F910F91FF90EF90DF90CF90BF90AB
:100A7000AF909F908F907F906F905F900C94BE048A
:100A8000FF920F931F93CF93DF93D82FF92E162F3A
:100A9000C72F042F792F0E94C704402F6D2F7C2F62
:100AA0008D2F9F2D0E94C704402F612F7C2F812FF7
:100AB0009F2D0E94C704402F612F7C2F8D2F9C2FCC
:100AC0000E94C704DF91CF911F910F91FF9008956D
:100AD0000E942F03E6E1F1E0118A14860895DF9267
:100AE000EF92FF920F931F93CF93DF93D82E7B014A
:100AF000162F0F2D8091180190911901D0E00197C8
:100B000099F50F2D0D1BE0911E01F0911F018181C0
:100B1000C0E0D817B8F480911E0190911F01FC012C
:100B20002281C21768F42C2F4D2F6D2D0E941E04B8
:100B3000682F8E2D8C0F902F0E94BE04CF5FEBCFBD
:100B4000DF5FDFCFE0911E01F0911F018281C817A6
:100B500040F460E08E2D8C0F902F0E94BE04CF5F7A
:100B6000F1CF015030C0DF5F1E2D1D0FE0911E013F
:100B7000F0911F018181C0E0D817A8F480911E0177
:100B800090911F01FC012281C21768F72C2F4D2F75
:100B90006D2D0E941E04682F812F9F2D9C0F0E9497
:100BA000BE04CF5FEBCFE0911E01F0911F01828167
:100BB000C81740F460E0812F9F2D9C0F0E94BE0457
:100BC000CF5FF1CF1F5F812F902FDF91CF911F91CA
:100BD0000F91FF90EF90DF9008950F931F93CF93A5
:100BE0008C01C0E0F80181918F01882341F00E94BF
:100BF0006F05BC01CF5F853014F477FFF3CF8C2FE6
:100C0000CF911F910F9108950F931F93CF93DF936F
:100C100010922201409323011092260100911E019F
:100C200010911F010115110509F449C09B01EC0148
:100C3000F801818160911C0170911D0190E00E947A
:100C40006107BC0180912001909121010E947207EF
:100C5000CB016AE070E00E946107909325018093C8
:100C6000240130931B0120931A0140E250E0BE01A1
:100C700087E291E00E94C7078091160190911701C9
:100C80000197E9F4FE0101900020E9F73197BF01D7
:100C90006C1B7D0BF80181818F5F0E94580781508A
:100CA00020911801309119012130310511F095E0A2
:100CB00001C097E0981718F48EEF80932601DF911A
:100CC000CF911F910F910895209118013091190132
:100CD0002130310511F070E001C076E04FEF60E0A7
:100CE0000E940406089590E090931D0180931C01DA
:100CF0000895909317018093160108959093190118
:100D000080931801089590931F0180931E01089508
:100D1000809181019091820101969093820180934C
:100D2000810120912401309125018217930708F455
:100D300069C01092820110928101E0912201F0E0DD
:100D4000EA5EFE4F818981110AC0809123018230C1
:100D500008F458C0815080932301109222018091A1
:100D6000220190E0FC01EA5EFE4F2189222309F472
:100D700049C040911601509117012091260141155B
:100D8000510521F04130510599F024C0211122C0B4
:100D900060911A0170911B01895D9E4F0E94ED05C3
:100DA00090E0019790912201890F8093220112C057
:100DB00060911A0170911B01409118015091190125
:100DC0004130510511F4720F01C0621B895D9E4FC5
:100DD0000E94ED05809126018F5F80932601082EE9
:100DE000000C990BE0911E01F0911F01218130E070
:100DF000281739073CF410922601809122018F5F59
:100E0000809322010C941B03CF93DF93C6E1D1E0C2
:100E10009B878A870E94370384E190E09F838E83BB
:100E2000DF91CF910C946805CF93DF93CDB7DEB7F8
:100E300060970FB6F894DEBF0FBECDBF0E947A0256
:100E40000E94080488EE93E00E94040741E064E0F9
:100E500076E084E090E00E94C704CE01019620E194
:100E6000FC0111922A95E9F720E630E03A832983C4
:100E700020E031E03C832B834CE25AE05E834D83DB
:100E800049E550E05A8749873C872B872FE130E0BE
:100E90003E872D8762E00E94800480E090E06096AB
:100EA0000FB6F894DEBF0FBECDBFDF91CF9108958E
:100EB000002480FD060E660F11F08695D1F7802D77
:100EC00008950024552704C0080E591F880F991F44
:100ED000009729F076956795B8F37105B9F7802DDD
:100EE000952F0895AA1BBB1B51E107C0AA1FBB1F6A
:100EF000A617B70710F0A61BB70B881F991F5A95A6
:100F0000A9F780959095BC01CD010895052E97FB1A
:100F10001EF400940E949D0757FD07D00E94A5076C
:100F200007FC03D04EF40C949D07509540953095E6
:100F300021953F4F4F4F5F4F089590958095709545
:100F400061957F4F8F4F9F4F0895A1E21A2EAA1BE4
:100F5000BB1BFD010DC0AA1FBB1FEE1FFF1FA21769
:100F6000B307E407F50720F0A21BB30BE40BF50B66
:100F7000661F771F881F991F1A9469F760957095EF
:100F8000809590959B01AC01BD01CF010895FB01B7
:100F9000DC014150504048F001900D920020C9F70B
:100FA00001C01D9241505040E0F70895F894FFCFE2
:100FB0000300060000000000000101010000FFFF27
:100FC000FF00080000000000000000001400000006
:100FD0000000000000000000000000000000000011
:100FE0000000000000000000000000000000000001
:100FF0000000000000000016000F0014001700158C
:10100000000E000D000C000B000A0009000800177C
:0A10100000160015000F0014000088
:00000001FF
