:100000000C943A000C9457000C9457000C94570031
:100010000C9457000C9457000C9457000C94570004
:100020000C9457000C9457000C9457000C945700F4
:100030000C9457000C9457000C9457000C945700E4
:100040000C9457000C9457000C9457000C945700D4
:100050000C9457000C9457000C9457000C945700C4
:100060000C9457000C9457000C9457000C945700B4
:100070000C94570011241FBECFEFD4E0DEBFCDBFDC
:1000800011E0A0E0B1E0E2E6F1E102C005900D92DE
:10009000AC37B107D9F721E0ACE7B1E001C01D9260
:1000A000A53AB207E1F70E9462070C94AF080C94DE
:1000B0000000BC016C5F7F4F0E94DE000C94D606EE
:1000C0000F931F93FC01208131813583248322818A
:1000D0003381378326838C010D5E1F4F9C012F5E79
:1000E0003F4FAC01475F5F4FBC01685F7F4F0E948D
:1000F0007C001F910F910895AF92BF92CF92DF9233
:10010000EF92FF920F931F93CF93DF93EC017B014C
:100110005A0169010E94120480E00E9400048823B1
:1001200021F08A819B81019708C082E00E9400042F
:10013000882341F08A819B8101968730910510F4D4
:100140009B838A830E942B03F701808181110BC05E
:100150000E94FB02882319F081E0F7018083F701F8
:100160008081882301F1F80180819181F501E80FF8
:10017000F91F208188819981821B910927FD939520
:1001800099838883F801808191810196918380838E
:10019000F601208131818217930729F4F801118239
:1001A0001082F7011082DF91CF911F910F91FF9084
:1001B000EF90DF90CF90BF90AF900895CF93DF93F3
:1001C000EC01FB0160E0808192810E940C0561E0FE
:1001D00088819A810E940C05DF91CF910895CF9379
:1001E000DF93EC010E94770862E070E00E94D40780
:1001F0009C0191E0232B09F490E09A838FEF888390
:100200000E94770863E070E00E94D4078F5F8983C3
:1002100081E08B8380E0E82FF0E0EE0FFF1FEE0F10
:10022000FF1FEC0FFD1F9381992319F090819F5FB1
:10023000908390819730DCF013824C815D816E81D8
:100240007F81488359836A837B83488559856A8582
:100250007B854C835D836E837F834C855D856E8556
:100260007F85488759876A877B871F8681508F5F84
:10027000843088F2DF91CF910895AC014770552703
:1002800021E030E001C0220F4A95EAF733E096956D
:1002900087953A95E1F78230910591F18330910588
:1002A00009F459C0019709F080C062307105B1F0BE
:1002B00058F46130710509F078C084B1209582232B
:1002C00084B985B1282311C06330710581F0643091
:1002D000710509F06AC085B1822B0DC084B1922FDF
:1002E0009095892384B985B1282B25B95CC085B147
:1002F000922F9095892385B984B1282B24B953C0B6
:1003000062307105B1F058F46130710509F04DC0EB
:1003100087B12095822387B988B1282311C0633023
:10032000710581F06430710509F03FC088B1822BFE
:100330000DC087B1922F9095892387B988B1282B5A
:1003400028B931C088B1922F9095892388B987B197
:10035000282B27B928C062307105A1F050F4613014
:10036000710519F58AB1209582238AB98BB12823AA
:1003700010C06330710579F064307105B1F48BB150
:10038000822B0DC08AB1922F909589238AB98BB1A7
:10039000282B2BB908C08BB1922F909589238BB94C
:1003A0008AB1282B2AB981E0089580E00895AC0134
:1003B0004770552721E030E001C0220F4A95EAF747
:1003C00033E0969587953A95E1F78230910549F0AB
:1003D0008330910551F0019759F485B1282B25B947
:1003E000089588B1282B28B908958BB1282B2BB9F3
:1003F0000895AC014770552721E030E001C0220F7D
:100400004A95EAF733E0969587953A95E1F7823079
:10041000910551F08330910561F0019771F485B138
:100420002095282325B9089588B12095282328B937
:1004300008958BB1209528232BB90895AC014770FE
:10044000552721E030E001C0220F4A95EAF733E05A
:10045000969587953A95E1F78230910549F083307A
:10046000910551F0019759F485B1282725B90895D0
:1004700088B1282728B908958BB128272BB908956A
:10048000AC014770552721E030E001C0220F4A95AA
:10049000EAF733E0969587953A95E1F78230910532
:1004A00039F08330910531F0019741F483B103C0F5
:1004B00086B101C089B1282381E009F480E0089564
:1004C00061110C94D7010C94F901AC0147705527C8
:1004D00021E030E001C0220F4A95EAF733E096951B
:1004E00087953A95E1F78230910561F08330910567
:1004F00081F0019721F584B1822391E009F490E025
:1005000084B10DC087B1822391E009F490E087B1F6
:1005100006C08AB1822391E009F490E08AB12823D1
:1005200081E009F480E0992329F081110BC083E078
:1005300090E00895811109C081E090E0089580E085
:1005400090E0089584E090E0089582E090E00895BE
:10055000AC014770552721E030E001C0220F4A95D9
:10056000EAF733E0969587953A95E1F78230910561
:1005700039F08330910531F0019741F485B103C022
:1005800088B101C08BB1282381E009F480E008958F
:10059000E1E6F0E080E880831082A89584B7877F49
:1005A00084BFE0E6F0E08081886180831082089556
:1005B0001092800084E08093810010928500109258
:1005C0008400089580918400909185000895AC0185
:1005D00080918400909185009C01241B350B283E5E
:1005E0003340B0F708952091840030918500820F48
:1005F000931F0C94E70281110DC080917C01882328
:1006000029F090917D0181E0892702C080E090E08F
:100610008170089580E0089581110BC080917C0164
:10062000811103C080917D0102C080E090E0817063
:10063000089580E00895811103C080917C010895A0
:1006400080E00895811105C090917C0181E08927A7
:10065000089580E00895CF93DF93CCE7D1E08881BF
:1006600089838FE190E00E9440028883DF91CF91DF
:10067000089561E070E08FE190E00C943D018530D9
:1006800098F4673088F421E030E001C0220F6A95C9
:10069000EAF7E82FF0E0E158FE4F922F9095808125
:1006A00089234111822B80830895853080F467303F
:1006B00070F421E030E001C0220F6A95EAF7E82FDC
:1006C000F0E0E158FE4F8081282381E009F480E0CA
:1006D000089560917E01E62FF0E0E158FE4F8081A1
:1006E0000E94AB0380917E018F5F853018F4809368
:1006F0007E01089510927E010895EFE7F1E01082E7
:10070000118212821382148208950E9489030C942C
:100710007D030F931F93CF93DF93C4E6D1E064E092
:1007200070E0899199910E943D0181E0C237D8071C
:10073000B1F7CAE5D1E004E611E064E070E0899128
:1007400099910E943D010C171D07B9F7DF91CF91D8
:100750001F910F910895FF920F931F93CF93DF93F3
:10076000082FF62EE0918401F0E0EE0FFF1FE65A0D
:10077000FE4F808191810E94D701C4E6D1E017E04D
:100780008881998100FF03C00E94F90102C00E9484
:10079000D7010695115022961111F2CFEF2DF0E0FE
:1007A000EE0FFF1FE65AFE4F808191810E94F901F2
:1007B000F0928401DF91CF911F910F91FF900895E6
:1007C000E82FF0E0EE0FFF1FEB57FE4F80818823EC
:1007D00021F0918181E0892702C080E090E0817062
:1007E0000895E82FF0E0EE0FFF1FEB57FE4F8081DA
:1007F000811102C0818102C080E090E08170089583
:10080000E82FF0E0EE0FFF1FEB57FE4F80810895B9
:10081000E82FF0E0EE0FFF1FEB57FE4F908181E0D5
:1008200089270895AF92BF92CF92DF92EF92FF9205
:100830000F931F93CF93DF93C5E8D1E082E7E82EB3
:1008400081E0F82E96E0A92EBB24B3948881898399
:10085000F701019111917F01C8010E9465026C01AD
:1008600064E070E0C8010E943D0162E070E0C801F0
:100870000E943D018A2D8A95F1F7C8010E9440022D
:100880008B258883B601C8010E943D012296F1E0C4
:10089000CF38DF07D9F6DF91CF911F910F91FF90ED
:1008A000EF90DF90CF90BF90AF900895089500979C
:1008B00089F0FC012381621B67FD09C0062E000C34
:1008C000770B248130E081E0621773070CF080E041
:1008D0008170089580E00895CF93DF93FC01892B08
:1008E00079F18181481760F59281291748F5938144
:1008F000A62FA91BA7FD24C00A2E000CBB0BC48188
:10090000D0E0AC17BD07E4F4622F0E94A607480FA1
:10091000858190E0BD010E94AF070696242F2695A1
:1009200026952695E80FF91FE20FF11D808190E0D2
:10093000477002C0959587954A95E2F7817001C08E
:1009400080E0DF91CF910895CF93DF93EC010E9477
:10095000D8029E0140E050E062E17AE780E090E05A
:100960000E94E8073093920120939101DF91CF918B
:10097000089580918F01909190010E94E70220914B
:100980008F01309190018091910190919201820F9D
:10099000931F9093900180938F010895182F092F32
:1009A000F62E0E94D8020E94E202C12FD02F8E8123
:1009B0009F810E94E702E881F9818A819B810995E4
:1009C0002E813F818C819D81820F931F9F838E8317
:1009D0000E94E202BC01E12FF02F4FEF5FEF90E0A9
:1009E0009F1529F326813781DB01A21BB30B9D01E3
:1009F0002F3FBFE73B0710F4EF01D9CF3195219589
:100A000031092417350710F4A901EF019F5F3896CB
:100A1000E7CF692F0C94550341E0611101C040E01C
:100A2000692F0C943F030C940C055F926F927F9298
:100A30008F929F92AF92BF92CF92DF92EF92FF92EE
:100A40000F931F93CF93DF93562E872E942E5C0126
:100A5000E62EF72EC62F660FDD0BC81BD10987FDCA
:100A6000D395072F770F110B091B110997FD1395CC
:100A7000D7FF03C077247A9402C07724739417FFBA
:100A800003C066246A9402C066246394D7FF03C03F
:100A9000D195C195D10917FF03C011950195110991
:100AA000C017D107A4F06E01D594C794F92EA514F0
:100AB00011F1692D8A2D9F2D0E940C05C01AD10AB3
:100AC000D7FE03C0CC0EDD1EF60CA70CF0CF6801DC
:100AD000D594C794E82EB81471F0692D8E2D9B2DF6
:100AE0000E940C05CC1ADD0AD7FE03C0C00ED11E31
:100AF000E70CB60CF0CF692DC701DF91CF911F91A4
:100B00000F91FF90EF90DF90CF90BF90AF909F90AC
:100B10008F907F906F905F900C940C05FF920F93D5
:100B20001F93CF93DF93D82FF92E162FC72F042FA3
:100B3000792F0E941505402F6D2F7C2F8D2F9F2D13
:100B40000E941505402F612F7C2F812F9F2D0E9421
:100B50001505402F612F7C2F8D2F9C2F0E9415058E
:100B6000DF91CF911F910F91FF9008950E947D0317
:100B7000E5E2F1E0118A14860895DF92EF92FF9288
:100B80000F931F93CF93DF93D82E7B01162F0F2D3A
:100B90008091270190912801D0E0019799F50F2DC0
:100BA0000D1BE0912D01F0912E018181C0E0D8173D
:100BB000B8F480912D0190912E01FC012281C21781
:100BC00068F42C2F4D2F6D2D0E946C04682F8E2DF4
:100BD0008C0F902F0E940C05CF5FEBCFDF5FDFCF34
:100BE000E0912D01F0912E018281C81740F460E060
:100BF0008E2D8C0F902F0E940C05CF5FF1CF0150EE
:100C000030C0DF5F1E2D1D0FE0912D01F0912E01F0
:100C10008181C0E0D817A8F480912D0190912E0118
:100C2000FC012281C21768F72C2F4D2F6D2D0E94D9
:100C30006C04682F812F9F2D9C0F0E940C05CF5FA5
:100C4000EBCFE0912D01F0912E018281C81740F485
:100C500060E0812F9F2D9C0F0E940C05CF5FF1CF8C
:100C60001F5F812F902FDF91CF911F910F91FF90E8
:100C7000EF90DF9008950F931F93CF938C01C0E006
:100C8000F80181918F01882341F00E94BD05BC01CC
:100C9000CF5F853014F477FFF3CF8C2FCF911F9166
:100CA0000F9108950F931F93CF93DF93109231010B
:100CB000409332011092350100912D0110912E01C7
:100CC0000115110509F449C09B01EC01F80181816E
:100CD00060912B0170912C0190E00E94AF07BC0144
:100CE00080912F01909130010E94C007CB016AE0F2
:100CF00070E00E94AF0790933401809333013093EA
:100D00002A012093290140E250E0BE0186E391E0F0
:100D10000E94870880912501909126010197E9F4AE
:100D2000FE0101900020E9F73197BF016C1B7D0B9C
:100D3000F80181818F5F0E94A607815020912701D1
:100D4000309128012130310511F095E001C097E084
:100D5000981718F48EEF80933501DF91CF911F9192
:100D60000F910895209127013091280121303105FC
:100D700011F070E001C076E04FEF60E00E94520693
:100D8000089590E090932C0180932B010895909307
:100D900026018093250108959093280180932701CF
:100DA000089590932E0180932D01089580919301D1
:100DB00090919401019690939401809393012091D6
:100DC0003301309134018217930708F469C01092FF
:100DD000940110929301E0913101F0E0EB5DFE4F40
:100DE000818981110AC080913201823008F458C093
:100DF000815080933201109231018091310190E055
:100E0000FC01EB5DFE4F2189222309F449C040918A
:100E1000250150912601209135014115510521F000
:100E20004130510599F024C0211122C0609129015F
:100E300070912A018A5C9E4F0E943B0690E00197C8
:100E400090913101890F8093310112C06091290185
:100E500070912A014091270150912801413051059C
:100E600011F4720F01C0621B8A5C9E4F0E943B0608
:100E7000809135018F5F80933501082E000C990B0E
:100E8000E0912D01F0912E01218130E028173907E2
:100E90003CF410923501809131018F5F80933101D4
:100EA0000C946903CF93DF93C5E2D1E09B878A87D7
:100EB0000E94850384E190E09F838E83DF91CF9130
:100EC0000C94B605CF93DF93CDB7DEB760970FB61E
:100ED000F894DEBF0FBECDBF0E94C8020E94560428
:100EE00088EE93E00E94520741E064E076E084E0FF
:100EF00090E00E941505CE01019620E1FC011192BF
:100F00002A95E9F720E630E03A83298320E031E0B2
:100F10003C832B834CE25AE05E834D8349E550E0ED
:100F20005A8749873C872B872FE130E03E872D8702
:100F300062E00E94CE0480E090E060960FB6F894E4
:100F4000DEBF0FBECDBFDF91CF910895002480FD9D
:100F5000060E660F11F08695D1F7802D08950024B6
:100F6000552704C0080E591F880F991F009729F0B4
:100F700076956795B8F37105B9F7802D952F08958B
:100F8000AA1BBB1B51E107C0AA1FBB1FA617B707AF
:100F900010F0A61BB70B881F991F5A95A9F78095CB
:100FA0009095BC01CD01089597FB072E16F400948F
:100FB00007D077FD09D00E94C00707FC05D03EF49A
:100FC000909581959F4F0895709561957F4F0895F5
:100FD000052E97FB1EF400940E94FF0757FD07D0D3
:100FE0000E94070807FC03D04EF40C94FF075095AD
:100FF0004095309521953F4F4F4F5F4F0895909505
:101000008095709561957F4F8F4F9F4F0895A1E216
:101010001A2EAA1BBB1BFD010DC0AA1FBB1FEE1F72
:10102000FF1FA217B307E407F50720F0A21BB30BBD
:10103000E40BF50B661F771F881F991F1A9469F739
:1010400060957095809590959B01AC01BD01CF0195
:1010500008958F929F92AF92BF92CF92DF92EF92BC
:10106000FF92CF93DF93EC01688179818A819B8124
:10107000611571058105910521F464E279ED8BE537
:1010800097E02DE133EF41E050E00E94E80749018D
:101090005A0127EA31E440E050E00E9496086B01D3
:1010A0007C012CEE34EF4FEF5FEFC501B4010E94DD
:1010B0009608DC01CB018C0D9D1DAE1DBF1DB7FF39
:1010C00003C00197A109B04888839983AA83BB8391
:1010D0009F77DF91CF91FF90EF90DF90CF90BF90FF
:1010E000AF909F908F9008950E942908089586E5FB
:1010F00091E00E9429080895A0E0B0E08093560195
:1011000090935701A0935801B09359010895FB01A2
:10111000DC014150504048F001900D920020C9F789
:1011200001C01D9241505040E0F70895EE27FF277F
:10113000AA27BB2708C0A20FB31FE41FF51F220F69
:10114000331F441F551F969587957795679598F39C
:101150007040A9F7009799F7BD01CF010895F89461
:02116000FFCFBF
:101162000300060000000000000101010000FFFF73
:10117200FF08000000000000000000000000000066
:101182000000000000000000000000140000000049
:10119200000000000000000000000000000000004D
:1011A200000000000000000000000000000000003D
:1011B2000000000000000100000016000F001400F3
:1011C200170015000E000D000C000B000A000900AC
:0C11D20008001700160015000F001400A4
:00000001FF
