:100000000C943A000C9457000C9457000C94570031
:100010000C9457000C9457000C9457000C94570004
:100020000C9457000C9457000C9457000C945700F4
:100030000C9457000C9457000C9457000C945700E4
:100040000C9457000C9457000C9457000C945700D4
:100050000C9457000C9457000C9457000C945700C4
:100060000C9457000C9457000C9457000C945700B4
:100070000C94570011241FBECFEFD4E0DEBFCDBFDC
:1000800011E0A0E0B1E0EEE8FEE002C005900D92C4
:10009000A435B107D9F721E0A4E5B1E001C01D9274
:1000A000A337B207E1F70E947B060C9445070C9436
:1000B0000000BC016C5F7F4F0E9489000C94EF052B
:1000C000FC01208131813583248322813381378370
:1000D00026830C946B00CF93DF93EC010E942B03DB
:1000E00080E00E941903882321F08A819B81019777
:1000F00008C082E00E941903882341F08A819B8115
:1001000001968730910510F49B838A83DF91CF910C
:100110000895CF93DF93EC01FB0160E08081928131
:100120000E94250461E088819A810E942504DF9164
:10013000CF910895AC014770552721E030E001C010
:10014000220F4A95EAF733E0969587953A95E1F7BD
:100150008230910591F18330910509F459C00197DE
:1001600009F080C062307105B1F058F4613071055A
:1001700009F078C084B12095822384B985B1282301
:1001800011C06330710581F06430710509F06AC0F7
:1001900085B1822B0DC084B1922F9095892384B9AB
:1001A00085B1282B25B95CC085B1922F9095892304
:1001B00085B984B1282B24B953C062307105B1F0E0
:1001C00058F46130710509F04DC087B12095822344
:1001D00087B988B1282311C06330710581F064307C
:1001E000710509F03FC088B1822B0DC087B1922FF5
:1001F0009095892387B988B1282B28B931C088B157
:10020000922F9095892388B987B1282B27B928C0C8
:1002100062307105A1F050F46130710519F58AB1B1
:10022000209582238AB98BB1282310C063307105D1
:1002300079F064307105B1F48BB1822B0DC08AB1B5
:10024000922F909589238AB98BB1282B2BB908C09E
:100250008BB1922F909589238BB98AB1282B2AB91B
:1002600081E0089580E00895AC014770552721E0B2
:1002700030E001C0220F4A95EAF733E09695879562
:100280003A95E1F78230910549F08330910551F0BC
:10029000019759F485B1282B25B9089588B1282BE9
:1002A00028B908958BB1282B2BB90895AC0147705C
:1002B000552721E030E001C0220F4A95EAF733E0EC
:1002C000969587953A95E1F78230910551F0833004
:1002D000910561F0019771F485B12095282325B926
:1002E000089588B12095282328B908958BB12095C9
:1002F00028232BB90895AC014770552721E030E041
:1003000001C0220F4A95EAF733E0969587953A9512
:10031000E1F78230910549F08330910551F0019762
:1003200059F485B1282725B9089588B1282728B917
:1003300008958BB128272BB90895AC014770552734
:1003400021E030E001C0220F4A95EAF733E09695AC
:1003500087953A95E1F78230910539F08330910520
:1003600031F0019741F483B103C086B101C089B176
:10037000282381E009F480E0089561110C94340190
:100380000C945601AC014770552721E030E001C0C4
:10039000220F4A95EAF733E0969587953A95E1F76B
:1003A0008230910561F08330910581F0019721F54C
:1003B00084B1822391E009F490E084B10DC087B14B
:1003C000822391E009F490E087B106C08AB18223CC
:1003D00091E009F490E08AB1282381E009F480E0FB
:1003E000992329F081110BC083E090E008958111D9
:1003F00009C081E090E0089580E090E0089584E0F5
:1004000090E0089582E090E00895AC014770552790
:1004100021E030E001C0220F4A95EAF733E09695DB
:1004200087953A95E1F78230910539F0833091054F
:1004300031F0019741F485B103C088B101C08BB19F
:10044000282381E009F480E00895E1E6F0E080E807
:1004500080831082A89584B7877F84BFE0E6F0E0B0
:10046000808188618083108208951092800084E0EA
:1004700080938100109285001092840008958091ED
:100480008400909185000895AC0180918400909142
:1004900085009C01241B350B283E3340B0F708959E
:1004A0002091840030918500820F931F0C944402A8
:1004B000853098F4673088F421E030E001C0220FE5
:1004C0006A95EAF7E82FF0E0E35AFE4F922F9095F5
:1004D000808189234111822B80830895853080F4A7
:1004E000673070F421E030E001C0220F6A95EAF72E
:1004F000E82FF0E0E35AFE4F8081282381E009F4E1
:1005000080E0089560915C01E62FF0E0E35AFE4F31
:1005100080810E94C40280915C018F5F853018F455
:1005200080935C01089510925C010895EDE5F1E07F
:100530001082118212821382148208950E94A202F4
:100540000C9496020F931F93CF93DF93CBE3D1E0EC
:1005500064E070E0899199910E949A0081E0C93429
:10056000D807B1F7C1E3D1E00BE311E064E070E03C
:10057000899199910E949A000C171D07B9F7DF9194
:10058000CF911F910F910895FF920F931F93CF93D7
:10059000DF93082FF62EE0916201F0E0EE0FFF1FCF
:1005A000EF5CFE4F808191810E943401CBE3D1E06A
:1005B00017E08881998100FF03C00E94560102C0A4
:1005C0000E9434010695115022961111F2CFEF2DA1
:1005D000F0E0EE0FFF1FEF5CFE4F808191810E94E3
:1005E0005601F0926201DF91CF911F910F91FF9020
:1005F0000895E82FF0E0EE0FFF1FED59FE4F8081C8
:10060000882321F0918181E0892702C080E090E079
:1006100081700895E82FF0E0EE0FFF1FED59FE4FB7
:100620008081811102C0818102C080E090E08170F0
:100630000895E82FF0E0EE0FFF1FED59FE4F808187
:100640000895E82FF0E0EE0FFF1FED59FE4F908167
:1006500081E089270895AF92BF92CF92DF92EF9207
:10066000FF920F931F93CF93DF93C3E6D1E089E40A
:10067000E82E81E0F82E96E0A92EBB24B394888161
:100680008983F701019111917F01C8010E94C20184
:100690006C0164E070E0C8010E949A0062E070E0C2
:1006A000C8010E949A008A2D8A95F1F7C8010E941C
:1006B0009D018B258883B601C8010E949A0022966D
:1006C000F1E0CD36DF07D9F6DF91CF911F910F9181
:1006D000FF90EF90DF90CF90BF90AF900895089576
:1006E000009789F0FC012381621B67FD09C0062E7B
:1006F000000C770B248130E081E0621773070CF067
:1007000080E08170089580E00895CF93DF93FC012D
:10071000892B79F18181481760F59281291748F575
:100720009381A62FA91BA7FD24C00A2E000CBB0B8A
:10073000C481D0E0AC17BD07E4F4622F0E94C70665
:10074000480F858190E0BD010E94D0060696242FB7
:10075000269526952695E80FF91FE20FF11D808159
:1007600090E0477002C0959587954A95E2F78170B1
:1007700001C080E0DF91CF910895CF93DF93EC012A
:100780000E9435029E0140E050E062E17AE780E09D
:1007900090E00E94F5063093700120936F01DF9185
:1007A000CF91089580916D0190916E010E94440255
:1007B00020916D0130916E0180916F0190917001D7
:1007C000820F931F90936E0180936D010895182FEF
:1007D000092FF62E0E9435020E943F02C12FD02F12
:1007E0008E819F810E944402E881F9818A819B81E8
:1007F00009952E813F818C819D81820F931F9F835C
:100800008E830E943F02BC01E12FF02F4FEF5FEF7C
:1008100090E09F1529F326813781DB01A21BB30BE2
:100820009D012F3FBFE73B0710F4EF01D9CF319572
:10083000219531092417350710F4A901EF019F5FB5
:100840003896E7CF692F0C946E0241E0611101C028
:1008500040E0692F0C9458020C9425045F926F922B
:100860007F928F929F92AF92BF92CF92DF92EF9240
:10087000FF920F931F93CF93DF93562E872E942EC4
:100880005C01E62EF72EC62F660FDD0BC81BD109C3
:1008900087FDD395072F770F110B091B110997FDC2
:1008A0001395D7FF03C077247A9402C077247394FA
:1008B00017FF03C066246A9402C066246394D7FFBE
:1008C00003C0D195C195D10917FF03C011950195BA
:1008D0001109C017D107A4F06E01D594C794F92E61
:1008E000A51411F1692D8A2D9F2D0E942504C01A8F
:1008F000D10AD7FE03C0CC0EDD1EF60CA70CF0CF3C
:100900006801D594C794E82EB81471F0692D8E2D26
:100910009B2D0E942504CC1ADD0AD7FE03C0C00E11
:10092000D11EE70CB60CF0CF692DC701DF91CF9136
:100930001F910F91FF90EF90DF90CF90BF90AF90FD
:100940009F908F907F906F905F900C942504FF9202
:100950000F931F93CF93DF93D82FF92E162FC72F06
:10096000042F792F0E942E04402F6D2F7C2F8D2F66
:100970009F2D0E942E04402F612F7C2F812F9F2DB1
:100980000E942E04402F612F7C2F8D2F9C2F0E94C0
:100990002E04DF91CF911F910F91FF9008950E9437
:1009A0009602E0E0F1E0118A14860895DF92EF925A
:1009B000FF920F931F93CF93DF93D82E7B01162FB7
:1009C0000F2D8091020190910301D0E0019799F5DC
:1009D0000F2D0D1BE0910801F09109018181C0E00C
:1009E000D817B8F48091080190910901FC01228187
:1009F000C21768F42C2F4D2F6D2D0E948503682F90
:100A00008E2D8C0F902F0E942504CF5FEBCFDF5FE0
:100A1000DFCFE0910801F09109018281C81740F40D
:100A200060E08E2D8C0F902F0E942504CF5FF1CFB8
:100A3000015030C0DF5F1E2D1D0FE0910801F091C5
:100A400009018181C0E0D817A8F480910801909134
:100A50000901FC012281C21768F72C2F4D2F6D2D43
:100A60000E948503682F812F9F2D9C0F0E942504D3
:100A7000CF5FEBCFE0910801F09109018281C817A7
:100A800040F460E0812F9F2D9C0F0E942504CF5FD2
:100A9000F1CF1F5F812F902FDF91CF911F910F9189
:100AA000FF90EF90DF9008950F931F93CF938C01E9
:100AB000C0E0F80181918F01882341F00E94D604A3
:100AC000BC01CF5F853014F477FFF3CF8C2FCF912B
:100AD0001F910F9108950F931F93CF93DF9310925F
:100AE0000C0140930D01109210010091080110912A
:100AF00009010115110509F449C09B01EC01F80138
:100B00008181609106017091070190E00E94D006FA
:100B1000BC0180910A0190910B010E94E106CB017A
:100B20006AE070E00E94D00690930F0180930E015E
:100B3000309305012093040140E250E0BE0181E1C1
:100B400091E00E9436078091000190910101019788
:100B5000E9F4FE0101900020E9F73197BF016C1B19
:100B60007D0BF80181818F5F0E94C7068150209123
:100B70000201309103012130310511F095E001C0EF
:100B800097E0981718F48EEF80931001DF91CF91C2
:100B90001F910F910895209102013091030121309E
:100BA000310511F070E001C076E04FEF60E00E9487
:100BB0006B05089590E090930701809306010895D6
:100BC0009093010180930001089590930301809315
:100BD000020108959093090180930801089580917E
:100BE000710190917201019690937201809371014D
:100BF00020910E0130910F018217930708F469C00C
:100C00001092720110927101E0910C01F0E0E0503D
:100C1000FF4F818981110AC080910D01823008F453
:100C200058C0815080930D0110920C0180910C01ED
:100C300090E0FC01E050FF4F2189222309F449C0D4
:100C40004091000150910101209110014115510581
:100C500021F04130510599F024C0211122C060914A
:100C60000401709105018F5E9E4F0E94540590E033
:100C7000019790910C01890F80930C0112C0609133
:100C8000040170910501409102015091030141302E
:100C9000510511F4720F01C0621B8F5E9E4F0E94BE
:100CA0005405809110018F5F80931001082E000C75
:100CB000990BE0910801F0910901218130E028179A
:100CC00039073CF41092100180910C018F5F8093E2
:100CD0000C010C948202CF93DF93C0E0D1E09B879C
:100CE0008A870E949E0284E190E09F838E83DF9139
:100CF000CF910C94CF04CF93DF93CDB7DEB760973D
:100D00000FB6F894DEBF0FBECDBF0E9425020E9431
:100D10006F0388EE93E00E946B0641E064E076E0AA
:100D200084E090E00E942E04E4E5F1E083E090E0AE
:100D30009183808386E090E093838283CE01019645
:100D400020E1DC011D922A95E9F720E630E03A83A4
:100D50002983FC83EB832AE638E13E832D8329E552
:100D600030E03A872987FC87EB872FE130E03E8728
:100D70002D8762E00E94E70380E090E060960FB666
:100D8000F894DEBF0FBECDBFDF91CF910895002450
:100D900080FD060E660F11F08695D1F7802D08951F
:100DA0000024552704C0080E591F880F991F00976B
:100DB00029F076956795B8F37105B9F7802D952FD1
:100DC0000895AA1BBB1B51E107C0AA1FBB1FA61792
:100DD000B70710F0A61BB70B881F991F5A95A9F7E4
:100DE00080959095BC01CD010895052E97FB1EF4CA
:100DF00000940E940C0757FD07D00E94140707FCBF
:100E000003D04EF40C940C075095409530952195E5
:100E10003F4F4F4F5F4F0895909580957095619526
:100E20007F4F8F4F9F4F0895A1E21A2EAA1BBB1B25
:100E3000FD010DC0AA1FBB1FEE1FFF1FA217B307A6
:100E4000E407F50720F0A21BB30BE40BF50B661FBC
:100E5000771F881F991F1A9469F760957095809580
:100E600090959B01AC01BD01CF010895FB01DC0110
:100E70004150504048F001900D920020C9F701C048
:0E0E80001D9241505040E0F70895F894FFCFC6
:100E8E000000000000001400000000000000000040
:100E9E000000000000000000000000000000000044
:100EAE000000000000000000000000000000000034
:100EBE000016000F001400170015000E000D000C98
:100ECE00000B000A00090008001700160015000F9D
:040EDE0000140000FC
:00000001FF
